No.     Time        Source                Destination           Protocol Length Info
    636 49.147772   127.0.0.1             127.0.0.1             OFP      74     Hello (SM) (8B)

Frame 636: 74 bytes on wire (592 bits), 74 bytes captured (592 bits)
    Arrival Time: Dec 11, 2013 09:45:59.396571000 PST
    Epoch Time: 1386783959.396571000 seconds
    [Time delta from previous captured frame: 0.038992000 seconds]
    [Time delta from previous displayed frame: 0.000000000 seconds]
    [Time since reference or first frame: 49.147772000 seconds]
    Frame Number: 636
    Frame Length: 74 bytes (592 bits)
    Capture Length: 74 bytes (592 bits)
    [Frame is marked: False]
    [Frame is ignored: False]
    [Protocols in frame: eth:ip:tcp:of]
    [Coloring Rule Name: of]
    [Coloring Rule String: of]
Ethernet II, Src: 00:00:00_00:00:00 (00:00:00:00:00:00), Dst: 00:00:00_00:00:00 (00:00:00:00:00:00)
    Destination: 00:00:00_00:00:00 (00:00:00:00:00:00)
        Address: 00:00:00_00:00:00 (00:00:00:00:00:00)
        .... ...0 .... .... .... .... = IG bit: Individual address (unicast)
        .... ..0. .... .... .... .... = LG bit: Globally unique address (factory default)
    Source: 00:00:00_00:00:00 (00:00:00:00:00:00)
        Address: 00:00:00_00:00:00 (00:00:00:00:00:00)
        .... ...0 .... .... .... .... = IG bit: Individual address (unicast)
        .... ..0. .... .... .... .... = LG bit: Globally unique address (factory default)
    Type: IP (0x0800)
Internet Protocol Version 4, Src: 127.0.0.1 (127.0.0.1), Dst: 127.0.0.1 (127.0.0.1)
    Version: 4
    Header length: 20 bytes
    Differentiated Services Field: 0x00 (DSCP 0x00: Default; ECN: 0x00: Not-ECT (Not ECN-Capable Transport))
        0000 00.. = Differentiated Services Codepoint: Default (0x00)
        .... ..00 = Explicit Congestion Notification: Not-ECT (Not ECN-Capable Transport) (0x00)
    Total Length: 60
    Identification: 0xb1a3 (45475)
    Flags: 0x02 (Don't Fragment)
        0... .... = Reserved bit: Not set
        .1.. .... = Don't fragment: Set
        ..0. .... = More fragments: Not set
    Fragment offset: 0
    Time to live: 64
    Protocol: TCP (6)
    Header checksum: 0x8b16 [correct]
        [Good: True]
        [Bad: False]
    Source: 127.0.0.1 (127.0.0.1)
    Destination: 127.0.0.1 (127.0.0.1)
Transmission Control Protocol, Src Port: 6633 (6633), Dst Port: 41499 (41499), Seq: 1, Ack: 2, Len: 8
    Source port: 6633 (6633)
    Destination port: 41499 (41499)
    [Stream index: 1]
    Sequence number: 1    (relative sequence number)
    [Next sequence number: 9    (relative sequence number)]
    Acknowledgement number: 2    (relative ack number)
    Header length: 32 bytes
    Flags: 0x018 (PSH, ACK)
        000. .... .... = Reserved: Not set
        ...0 .... .... = Nonce: Not set
        .... 0... .... = Congestion Window Reduced (CWR): Not set
        .... .0.. .... = ECN-Echo: Not set
        .... ..0. .... = Urgent: Not set
        .... ...1 .... = Acknowledgement: Set
        .... .... 1... = Push: Set
        .... .... .0.. = Reset: Not set
        .... .... ..0. = Syn: Not set
        .... .... ...0 = Fin: Not set
    Window size value: 512
    [Calculated window size: 32768]
    [Window size scaling factor: 64]
    Checksum: 0xfe30 [validation disabled]
        [Good Checksum: False]
        [Bad Checksum: False]
    Options: (12 bytes)
        No-Operation (NOP)
        No-Operation (NOP)
        Timestamps: TSval 40984, TSecr 40974
            Kind: Timestamp (8)
            Length: 10
            Timestamp value: 40984
            Timestamp echo reply: 40974
    [SEQ/ACK analysis]
        [Bytes in flight: 8]
    [PDU Size: 8]
OpenFlow Protocol
    Header
        Version: 0x01
        Type: Hello (SM) (0)
        Length: 8
        Transaction ID: 17

0000  00 00 00 00 00 00 00 00 00 00 00 00 08 00 45 00   ..............E.
0010  00 3c b1 a3 40 00 40 06 8b 16 7f 00 00 01 7f 00   .<..@.@.........
0020  00 01 19 e9 a2 1b 41 26 11 af d2 14 86 bd 80 18   ......A&........
0030  02 00 fe 30 00 00 01 01 08 0a 00 00 a0 18 00 00   ...0............
0040  a0 0e 01 00 00 08 00 00 00 11                     ..........
No.     Time        Source                Destination           Protocol Length Info
    663 49.220181   127.0.0.1             127.0.0.1             OFP      74     Hello (SM) (8B)

Frame 663: 74 bytes on wire (592 bits), 74 bytes captured (592 bits)
    Arrival Time: Dec 11, 2013 09:45:59.468980000 PST
    Epoch Time: 1386783959.468980000 seconds
    [Time delta from previous captured frame: 0.000065000 seconds]
    [Time delta from previous displayed frame: 0.072409000 seconds]
    [Time since reference or first frame: 49.220181000 seconds]
    Frame Number: 663
    Frame Length: 74 bytes (592 bits)
    Capture Length: 74 bytes (592 bits)
    [Frame is marked: False]
    [Frame is ignored: False]
    [Protocols in frame: eth:ip:tcp:of]
    [Coloring Rule Name: of]
    [Coloring Rule String: of]
Ethernet II, Src: 00:00:00_00:00:00 (00:00:00:00:00:00), Dst: 00:00:00_00:00:00 (00:00:00:00:00:00)
    Destination: 00:00:00_00:00:00 (00:00:00:00:00:00)
        Address: 00:00:00_00:00:00 (00:00:00:00:00:00)
        .... ...0 .... .... .... .... = IG bit: Individual address (unicast)
        .... ..0. .... .... .... .... = LG bit: Globally unique address (factory default)
    Source: 00:00:00_00:00:00 (00:00:00:00:00:00)
        Address: 00:00:00_00:00:00 (00:00:00:00:00:00)
        .... ...0 .... .... .... .... = IG bit: Individual address (unicast)
        .... ..0. .... .... .... .... = LG bit: Globally unique address (factory default)
    Type: IP (0x0800)
Internet Protocol Version 4, Src: 127.0.0.1 (127.0.0.1), Dst: 127.0.0.1 (127.0.0.1)
    Version: 4
    Header length: 20 bytes
    Differentiated Services Field: 0x00 (DSCP 0x00: Default; ECN: 0x00: Not-ECT (Not ECN-Capable Transport))
        0000 00.. = Differentiated Services Codepoint: Default (0x00)
        .... ..00 = Explicit Congestion Notification: Not-ECT (Not ECN-Capable Transport) (0x00)
    Total Length: 60
    Identification: 0x09a5 (2469)
    Flags: 0x02 (Don't Fragment)
        0... .... = Reserved bit: Not set
        .1.. .... = Don't fragment: Set
        ..0. .... = More fragments: Not set
    Fragment offset: 0
    Time to live: 64
    Protocol: TCP (6)
    Header checksum: 0x3315 [correct]
        [Good: True]
        [Bad: False]
    Source: 127.0.0.1 (127.0.0.1)
    Destination: 127.0.0.1 (127.0.0.1)
Transmission Control Protocol, Src Port: 41500 (41500), Dst Port: 6633 (6633), Seq: 1, Ack: 1, Len: 8
    Source port: 41500 (41500)
    Destination port: 6633 (6633)
    [Stream index: 2]
    Sequence number: 1    (relative sequence number)
    [Next sequence number: 9    (relative sequence number)]
    Acknowledgement number: 1    (relative ack number)
    Header length: 32 bytes
    Flags: 0x018 (PSH, ACK)
        000. .... .... = Reserved: Not set
        ...0 .... .... = Nonce: Not set
        .... 0... .... = Congestion Window Reduced (CWR): Not set
        .... .0.. .... = ECN-Echo: Not set
        .... ..0. .... = Urgent: Not set
        .... ...1 .... = Acknowledgement: Set
        .... .... 1... = Push: Set
        .... .... .0.. = Reset: Not set
        .... .... ..0. = Syn: Not set
        .... .... ...0 = Fin: Not set
    Window size value: 513
    [Calculated window size: 32832]
    [Window size scaling factor: 64]
    Checksum: 0xfe30 [validation disabled]
        [Good Checksum: False]
        [Bad Checksum: False]
    Options: (12 bytes)
        No-Operation (NOP)
        No-Operation (NOP)
        Timestamps: TSval 41002, TSecr 41002
            Kind: Timestamp (8)
            Length: 10
            Timestamp value: 41002
            Timestamp echo reply: 41002
    [SEQ/ACK analysis]
        [Bytes in flight: 8]
    [PDU Size: 8]
OpenFlow Protocol
    Header
        Version: 0x01
        Type: Hello (SM) (0)
        Length: 8
        Transaction ID: 2

0000  00 00 00 00 00 00 00 00 00 00 00 00 08 00 45 00   ..............E.
0010  00 3c 09 a5 40 00 40 06 33 15 7f 00 00 01 7f 00   .<..@.@.3.......
0020  00 01 a2 1c 19 e9 4f ec a9 8a 9e b9 26 82 80 18   ......O.....&...
0030  02 01 fe 30 00 00 01 01 08 0a 00 00 a0 2a 00 00   ...0.........*..
0040  a0 2a 01 00 00 08 00 00 00 02                     .*........
No.     Time        Source                Destination           Protocol Length Info
    665 49.263425   127.0.0.1             127.0.0.1             OFP      74     Hello (SM) (8B)

Frame 665: 74 bytes on wire (592 bits), 74 bytes captured (592 bits)
    Arrival Time: Dec 11, 2013 09:45:59.512224000 PST
    Epoch Time: 1386783959.512224000 seconds
    [Time delta from previous captured frame: 0.043237000 seconds]
    [Time delta from previous displayed frame: 0.043244000 seconds]
    [Time since reference or first frame: 49.263425000 seconds]
    Frame Number: 665
    Frame Length: 74 bytes (592 bits)
    Capture Length: 74 bytes (592 bits)
    [Frame is marked: False]
    [Frame is ignored: False]
    [Protocols in frame: eth:ip:tcp:of]
    [Coloring Rule Name: of]
    [Coloring Rule String: of]
Ethernet II, Src: 00:00:00_00:00:00 (00:00:00:00:00:00), Dst: 00:00:00_00:00:00 (00:00:00:00:00:00)
    Destination: 00:00:00_00:00:00 (00:00:00:00:00:00)
        Address: 00:00:00_00:00:00 (00:00:00:00:00:00)
        .... ...0 .... .... .... .... = IG bit: Individual address (unicast)
        .... ..0. .... .... .... .... = LG bit: Globally unique address (factory default)
    Source: 00:00:00_00:00:00 (00:00:00:00:00:00)
        Address: 00:00:00_00:00:00 (00:00:00:00:00:00)
        .... ...0 .... .... .... .... = IG bit: Individual address (unicast)
        .... ..0. .... .... .... .... = LG bit: Globally unique address (factory default)
    Type: IP (0x0800)
Internet Protocol Version 4, Src: 127.0.0.1 (127.0.0.1), Dst: 127.0.0.1 (127.0.0.1)
    Version: 4
    Header length: 20 bytes
    Differentiated Services Field: 0x00 (DSCP 0x00: Default; ECN: 0x00: Not-ECT (Not ECN-Capable Transport))
        0000 00.. = Differentiated Services Codepoint: Default (0x00)
        .... ..00 = Explicit Congestion Notification: Not-ECT (Not ECN-Capable Transport) (0x00)
    Total Length: 60
    Identification: 0x86a9 (34473)
    Flags: 0x02 (Don't Fragment)
        0... .... = Reserved bit: Not set
        .1.. .... = Don't fragment: Set
        ..0. .... = More fragments: Not set
    Fragment offset: 0
    Time to live: 64
    Protocol: TCP (6)
    Header checksum: 0xb610 [correct]
        [Good: True]
        [Bad: False]
    Source: 127.0.0.1 (127.0.0.1)
    Destination: 127.0.0.1 (127.0.0.1)
Transmission Control Protocol, Src Port: 6633 (6633), Dst Port: 41500 (41500), Seq: 1, Ack: 9, Len: 8
    Source port: 6633 (6633)
    Destination port: 41500 (41500)
    [Stream index: 2]
    Sequence number: 1    (relative sequence number)
    [Next sequence number: 9    (relative sequence number)]
    Acknowledgement number: 9    (relative ack number)
    Header length: 32 bytes
    Flags: 0x018 (PSH, ACK)
        000. .... .... = Reserved: Not set
        ...0 .... .... = Nonce: Not set
        .... 0... .... = Congestion Window Reduced (CWR): Not set
        .... .0.. .... = ECN-Echo: Not set
        .... ..0. .... = Urgent: Not set
        .... ...1 .... = Acknowledgement: Set
        .... .... 1... = Push: Set
        .... .... .0.. = Reset: Not set
        .... .... ..0. = Syn: Not set
        .... .... ...0 = Fin: Not set
    Window size value: 512
    [Calculated window size: 32768]
    [Window size scaling factor: 64]
    Checksum: 0xfe30 [validation disabled]
        [Good Checksum: False]
        [Bad Checksum: False]
    Options: (12 bytes)
        No-Operation (NOP)
        No-Operation (NOP)
        Timestamps: TSval 41013, TSecr 41002
            Kind: Timestamp (8)
            Length: 10
            Timestamp value: 41013
            Timestamp echo reply: 41002
    [SEQ/ACK analysis]
        [Bytes in flight: 8]
    [PDU Size: 8]
OpenFlow Protocol
    Header
        Version: 0x01
        Type: Hello (SM) (0)
        Length: 8
        Transaction ID: 18

0000  00 00 00 00 00 00 00 00 00 00 00 00 08 00 45 00   ..............E.
0010  00 3c 86 a9 40 00 40 06 b6 10 7f 00 00 01 7f 00   .<..@.@.........
0020  00 01 19 e9 a2 1c 9e b9 26 82 4f ec a9 92 80 18   ........&.O.....
0030  02 00 fe 30 00 00 01 01 08 0a 00 00 a0 35 00 00   ...0.........5..
0040  a0 2a 01 00 00 08 00 00 00 12                     .*........
No.     Time        Source                Destination           Protocol Length Info
    667 49.263670   127.0.0.1             127.0.0.1             OFP      74     Features Request (CSM) (8B)

Frame 667: 74 bytes on wire (592 bits), 74 bytes captured (592 bits)
    Arrival Time: Dec 11, 2013 09:45:59.512469000 PST
    Epoch Time: 1386783959.512469000 seconds
    [Time delta from previous captured frame: 0.000206000 seconds]
    [Time delta from previous displayed frame: 0.000245000 seconds]
    [Time since reference or first frame: 49.263670000 seconds]
    Frame Number: 667
    Frame Length: 74 bytes (592 bits)
    Capture Length: 74 bytes (592 bits)
    [Frame is marked: False]
    [Frame is ignored: False]
    [Protocols in frame: eth:ip:tcp:of]
    [Coloring Rule Name: of]
    [Coloring Rule String: of]
Ethernet II, Src: 00:00:00_00:00:00 (00:00:00:00:00:00), Dst: 00:00:00_00:00:00 (00:00:00:00:00:00)
    Destination: 00:00:00_00:00:00 (00:00:00:00:00:00)
        Address: 00:00:00_00:00:00 (00:00:00:00:00:00)
        .... ...0 .... .... .... .... = IG bit: Individual address (unicast)
        .... ..0. .... .... .... .... = LG bit: Globally unique address (factory default)
    Source: 00:00:00_00:00:00 (00:00:00:00:00:00)
        Address: 00:00:00_00:00:00 (00:00:00:00:00:00)
        .... ...0 .... .... .... .... = IG bit: Individual address (unicast)
        .... ..0. .... .... .... .... = LG bit: Globally unique address (factory default)
    Type: IP (0x0800)
Internet Protocol Version 4, Src: 127.0.0.1 (127.0.0.1), Dst: 127.0.0.1 (127.0.0.1)
    Version: 4
    Header length: 20 bytes
    Differentiated Services Field: 0x00 (DSCP 0x00: Default; ECN: 0x00: Not-ECT (Not ECN-Capable Transport))
        0000 00.. = Differentiated Services Codepoint: Default (0x00)
        .... ..00 = Explicit Congestion Notification: Not-ECT (Not ECN-Capable Transport) (0x00)
    Total Length: 60
    Identification: 0x86aa (34474)
    Flags: 0x02 (Don't Fragment)
        0... .... = Reserved bit: Not set
        .1.. .... = Don't fragment: Set
        ..0. .... = More fragments: Not set
    Fragment offset: 0
    Time to live: 64
    Protocol: TCP (6)
    Header checksum: 0xb60f [correct]
        [Good: True]
        [Bad: False]
    Source: 127.0.0.1 (127.0.0.1)
    Destination: 127.0.0.1 (127.0.0.1)
Transmission Control Protocol, Src Port: 6633 (6633), Dst Port: 41500 (41500), Seq: 9, Ack: 9, Len: 8
    Source port: 6633 (6633)
    Destination port: 41500 (41500)
    [Stream index: 2]
    Sequence number: 9    (relative sequence number)
    [Next sequence number: 17    (relative sequence number)]
    Acknowledgement number: 9    (relative ack number)
    Header length: 32 bytes
    Flags: 0x018 (PSH, ACK)
        000. .... .... = Reserved: Not set
        ...0 .... .... = Nonce: Not set
        .... 0... .... = Congestion Window Reduced (CWR): Not set
        .... .0.. .... = ECN-Echo: Not set
        .... ..0. .... = Urgent: Not set
        .... ...1 .... = Acknowledgement: Set
        .... .... 1... = Push: Set
        .... .... .0.. = Reset: Not set
        .... .... ..0. = Syn: Not set
        .... .... ...0 = Fin: Not set
    Window size value: 512
    [Calculated window size: 32768]
    [Window size scaling factor: 64]
    Checksum: 0xfe30 [validation disabled]
        [Good Checksum: False]
        [Bad Checksum: False]
    Options: (12 bytes)
        No-Operation (NOP)
        No-Operation (NOP)
        Timestamps: TSval 41013, TSecr 41013
            Kind: Timestamp (8)
            Length: 10
            Timestamp value: 41013
            Timestamp echo reply: 41013
    [SEQ/ACK analysis]
        [Bytes in flight: 8]
    [PDU Size: 8]
OpenFlow Protocol
    Header
        Version: 0x01
        Type: Features Request (CSM) (5)
        Length: 8
        Transaction ID: 19

0000  00 00 00 00 00 00 00 00 00 00 00 00 08 00 45 00   ..............E.
0010  00 3c 86 aa 40 00 40 06 b6 0f 7f 00 00 01 7f 00   .<..@.@.........
0020  00 01 19 e9 a2 1c 9e b9 26 8a 4f ec a9 92 80 18   ........&.O.....
0030  02 00 fe 30 00 00 01 01 08 0a 00 00 a0 35 00 00   ...0.........5..
0040  a0 35 01 05 00 08 00 00 00 13                     .5........
No.     Time        Source                Destination           Protocol Length Info
    669 49.264007   127.0.0.1             127.0.0.1             OFP      242    Features Reply (CSM) (176B)

Frame 669: 242 bytes on wire (1936 bits), 242 bytes captured (1936 bits)
    Arrival Time: Dec 11, 2013 09:45:59.512806000 PST
    Epoch Time: 1386783959.512806000 seconds
    [Time delta from previous captured frame: 0.000314000 seconds]
    [Time delta from previous displayed frame: 0.000337000 seconds]
    [Time since reference or first frame: 49.264007000 seconds]
    Frame Number: 669
    Frame Length: 242 bytes (1936 bits)
    Capture Length: 242 bytes (1936 bits)
    [Frame is marked: False]
    [Frame is ignored: False]
    [Protocols in frame: eth:ip:tcp:of]
    [Coloring Rule Name: of]
    [Coloring Rule String: of]
Ethernet II, Src: 00:00:00_00:00:00 (00:00:00:00:00:00), Dst: 00:00:00_00:00:00 (00:00:00:00:00:00)
    Destination: 00:00:00_00:00:00 (00:00:00:00:00:00)
        Address: 00:00:00_00:00:00 (00:00:00:00:00:00)
        .... ...0 .... .... .... .... = IG bit: Individual address (unicast)
        .... ..0. .... .... .... .... = LG bit: Globally unique address (factory default)
    Source: 00:00:00_00:00:00 (00:00:00:00:00:00)
        Address: 00:00:00_00:00:00 (00:00:00:00:00:00)
        .... ...0 .... .... .... .... = IG bit: Individual address (unicast)
        .... ..0. .... .... .... .... = LG bit: Globally unique address (factory default)
    Type: IP (0x0800)
Internet Protocol Version 4, Src: 127.0.0.1 (127.0.0.1), Dst: 127.0.0.1 (127.0.0.1)
    Version: 4
    Header length: 20 bytes
    Differentiated Services Field: 0x00 (DSCP 0x00: Default; ECN: 0x00: Not-ECT (Not ECN-Capable Transport))
        0000 00.. = Differentiated Services Codepoint: Default (0x00)
        .... ..00 = Explicit Congestion Notification: Not-ECT (Not ECN-Capable Transport) (0x00)
    Total Length: 228
    Identification: 0x09a8 (2472)
    Flags: 0x02 (Don't Fragment)
        0... .... = Reserved bit: Not set
        .1.. .... = Don't fragment: Set
        ..0. .... = More fragments: Not set
    Fragment offset: 0
    Time to live: 64
    Protocol: TCP (6)
    Header checksum: 0x326a [correct]
        [Good: True]
        [Bad: False]
    Source: 127.0.0.1 (127.0.0.1)
    Destination: 127.0.0.1 (127.0.0.1)
Transmission Control Protocol, Src Port: 41500 (41500), Dst Port: 6633 (6633), Seq: 9, Ack: 17, Len: 176
    Source port: 41500 (41500)
    Destination port: 6633 (6633)
    [Stream index: 2]
    Sequence number: 9    (relative sequence number)
    [Next sequence number: 185    (relative sequence number)]
    Acknowledgement number: 17    (relative ack number)
    Header length: 32 bytes
    Flags: 0x018 (PSH, ACK)
        000. .... .... = Reserved: Not set
        ...0 .... .... = Nonce: Not set
        .... 0... .... = Congestion Window Reduced (CWR): Not set
        .... .0.. .... = ECN-Echo: Not set
        .... ..0. .... = Urgent: Not set
        .... ...1 .... = Acknowledgement: Set
        .... .... 1... = Push: Set
        .... .... .0.. = Reset: Not set
        .... .... ..0. = Syn: Not set
        .... .... ...0 = Fin: Not set
    Window size value: 513
    [Calculated window size: 32832]
    [Window size scaling factor: 64]
    Checksum: 0xfed8 [validation disabled]
        [Good Checksum: False]
        [Bad Checksum: False]
    Options: (12 bytes)
        No-Operation (NOP)
        No-Operation (NOP)
        Timestamps: TSval 41013, TSecr 41013
            Kind: Timestamp (8)
            Length: 10
            Timestamp value: 41013
            Timestamp echo reply: 41013
    [SEQ/ACK analysis]
        [Bytes in flight: 176]
    [PDU Size: 176]
OpenFlow Protocol
    Header
        Version: 0x01
        Type: Features Reply (CSM) (6)
        Length: 176
        Transaction ID: 19
    Switch Features
        Datapath ID: 0x0000000000000001
        Max packets buffered: 256
        Number of Tables: 255
        Capabilities: 0x000000c7
            .... .... .... .... .... .... .... ...1 =   Flow statistics: Yes (1)
            .... .... .... .... .... .... .... ..1. =   Table statistics: Yes (1)
            .... .... .... .... .... .... .... .1.. =   Port statistics: Yes (1)
            .... .... .... .... .... .... .... 0... =   802.11d spanning tree: No (0)
            .... .... .... .... .... .... ...0 .... =   Reserved: No (0)
            .... .... .... .... .... .... ..0. .... =   Can reassemble IP fragments: No (0)
            .... .... .... .... .... .... .1.. .... =   Queue statistics: Yes (1)
            .... .... .... .... .... .... 1... .... =   Match IP addresses in ARP pkts: Yes (1)
        Actions: 0x00000fff
            .... .... .... .... .... .... .... ...1 =   Output to switch port: Yes (1)
            .... .... .... .... .... .... .... ..1. =   Set the 802.1q VLAN id: Yes (1)
            .... .... .... .... .... .... .... .1.. =   Set the 802.1q priority: Yes (1)
            .... .... .... .... .... .... .... 1... =   Strip the 802.1q header: Yes (1)
            .... .... .... .... .... .... ...1 .... =   Ethernet source address: Yes (1)
            .... .... .... .... .... .... ..1. .... =   Ethernet destination address: Yes (1)
            .... .... .... .... .... .... .1.. .... =   IP source address: Yes (1)
            .... .... .... .... .... .... 1... .... =   IP destination address: Yes (1)
            .... .... .... .... .... ...1 .... .... =   Set IP TOS bits: Yes (1)
            .... .... .... .... .... ..1. .... .... =   TCP/UDP source: Yes (1)
            .... .... .... .... .... .1.. .... .... =   TCP/UDP destination: Yes (1)
            .... .... .... .... .... 1... .... .... =   Enqueue port queue: Yes (1)
        Port Definitions
            # of Ports: 3
            Physical Port
                Port #: 2
                MAC Address: ae:20:82:54:0a:8c (ae:20:82:54:0a:8c)
                Port Name: s1-eth2
                Port Config Flags
                    .... .... .... .... .... .... .... ...0 =   Port is administratively down: No (0)
                    .... .... .... .... .... .... .... ..0. =   Disable 802.1D spanning tree on port: No (0)
                    .... .... .... .... .... .... .... .0.. =   Drop non-802.1D packets received on port: No (0)
                    .... .... .... .... .... .... .... 0... =   Drop received 802.1D STP packets: No (0)
                    .... .... .... .... .... .... ...0 .... =   Do not include this port when flooding: No (0)
                    .... .... .... .... .... .... ..0. .... =   Drop packets forwarded to port: No (0)
                    .... .... .... .... .... .... .0.. .... =   Do not send packet-in msgs for port: No (0)
                Port State Flags
                    STP state: Not learning or relaying frames
                Port Current Flags
                    .... .... .... .... .... .... .... ...0 =    10 Mb half-duplex rate support: No (0)
                    .... .... .... .... .... .... .... ..0. =    10 Mb full-duplex rate support: No (0)
                    .... .... .... .... .... .... .... .0.. =   100 Mb half-duplex rate support: No (0)
                    .... .... .... .... .... .... .... 0... =   100 Mb full-duplex rate support: No (0)
                    .... .... .... .... .... .... ...0 .... =     1 Gb half-duplex rate support: No (0)
                    .... .... .... .... .... .... ..0. .... =     1 Gb full-duplex rate support: No (0)
                    .... .... .... .... .... .... .1.. .... =    10 Gb full-duplex rate support: Yes (1)
                    .... .... .... .... .... .... 1... .... =    Copper medium support: Yes (1)
                    .... .... .... .... .... ...0 .... .... =    Fiber medium support: No (0)
                    .... .... .... .... .... ..0. .... .... =    Auto-negotiation support: No (0)
                    .... .... .... .... .... .0.. .... .... =    Pause support: No (0)
                    .... .... .... .... .... 0... .... .... =    Asymmetric pause support: No (0)
                Port Advertsied Flags
                    .... .... .... .... .... .... .... ...0 =    10 Mb half-duplex rate support: No (0)
                    .... .... .... .... .... .... .... ..0. =    10 Mb full-duplex rate support: No (0)
                    .... .... .... .... .... .... .... .0.. =   100 Mb half-duplex rate support: No (0)
                    .... .... .... .... .... .... .... 0... =   100 Mb full-duplex rate support: No (0)
                    .... .... .... .... .... .... ...0 .... =     1 Gb half-duplex rate support: No (0)
                    .... .... .... .... .... .... ..0. .... =     1 Gb full-duplex rate support: No (0)
                    .... .... .... .... .... .... .0.. .... =    10 Gb full-duplex rate support: No (0)
                    .... .... .... .... .... .... 0... .... =    Copper medium support: No (0)
                    .... .... .... .... .... ...0 .... .... =    Fiber medium support: No (0)
                    .... .... .... .... .... ..0. .... .... =    Auto-negotiation support: No (0)
                    .... .... .... .... .... .0.. .... .... =    Pause support: No (0)
                    .... .... .... .... .... 0... .... .... =    Asymmetric pause support: No (0)
                Port Supported Flags
                    .... .... .... .... .... .... .... ...0 =    10 Mb half-duplex rate support: No (0)
                    .... .... .... .... .... .... .... ..0. =    10 Mb full-duplex rate support: No (0)
                    .... .... .... .... .... .... .... .0.. =   100 Mb half-duplex rate support: No (0)
                    .... .... .... .... .... .... .... 0... =   100 Mb full-duplex rate support: No (0)
                    .... .... .... .... .... .... ...0 .... =     1 Gb half-duplex rate support: No (0)
                    .... .... .... .... .... .... ..0. .... =     1 Gb full-duplex rate support: No (0)
                    .... .... .... .... .... .... .0.. .... =    10 Gb full-duplex rate support: No (0)
                    .... .... .... .... .... .... 0... .... =    Copper medium support: No (0)
                    .... .... .... .... .... ...0 .... .... =    Fiber medium support: No (0)
                    .... .... .... .... .... ..0. .... .... =    Auto-negotiation support: No (0)
                    .... .... .... .... .... .0.. .... .... =    Pause support: No (0)
                    .... .... .... .... .... 0... .... .... =    Asymmetric pause support: No (0)
                Port Peer Flags
                    .... .... .... .... .... .... .... ...0 =    10 Mb half-duplex rate support: No (0)
                    .... .... .... .... .... .... .... ..0. =    10 Mb full-duplex rate support: No (0)
                    .... .... .... .... .... .... .... .0.. =   100 Mb half-duplex rate support: No (0)
                    .... .... .... .... .... .... .... 0... =   100 Mb full-duplex rate support: No (0)
                    .... .... .... .... .... .... ...0 .... =     1 Gb half-duplex rate support: No (0)
                    .... .... .... .... .... .... ..0. .... =     1 Gb full-duplex rate support: No (0)
                    .... .... .... .... .... .... .0.. .... =    10 Gb full-duplex rate support: No (0)
                    .... .... .... .... .... .... 0... .... =    Copper medium support: No (0)
                    .... .... .... .... .... ...0 .... .... =    Fiber medium support: No (0)
                    .... .... .... .... .... ..0. .... .... =    Auto-negotiation support: No (0)
                    .... .... .... .... .... .0.. .... .... =    Pause support: No (0)
                    .... .... .... .... .... 0... .... .... =    Asymmetric pause support: No (0)
            Physical Port
                Port #: Local  (local openflow "port")
                MAC Address: 2e:f2:ce:76:47:48 (2e:f2:ce:76:47:48)
                Port Name: s1
                Port Config Flags
                    .... .... .... .... .... .... .... ...1 =   Port is administratively down: Yes (1)
                    .... .... .... .... .... .... .... ..0. =   Disable 802.1D spanning tree on port: No (0)
                    .... .... .... .... .... .... .... .0.. =   Drop non-802.1D packets received on port: No (0)
                    .... .... .... .... .... .... .... 0... =   Drop received 802.1D STP packets: No (0)
                    .... .... .... .... .... .... ...0 .... =   Do not include this port when flooding: No (0)
                    .... .... .... .... .... .... ..0. .... =   Drop packets forwarded to port: No (0)
                    .... .... .... .... .... .... .0.. .... =   Do not send packet-in msgs for port: No (0)
                Port State Flags
                    .... .... .... .... .... .... .... ...1 =   No physical link present: 1
                    STP state: Not learning or relaying frames
                Port Current Flags
                    .... .... .... .... .... .... .... ...0 =    10 Mb half-duplex rate support: No (0)
                    .... .... .... .... .... .... .... ..0. =    10 Mb full-duplex rate support: No (0)
                    .... .... .... .... .... .... .... .0.. =   100 Mb half-duplex rate support: No (0)
                    .... .... .... .... .... .... .... 0... =   100 Mb full-duplex rate support: No (0)
                    .... .... .... .... .... .... ...0 .... =     1 Gb half-duplex rate support: No (0)
                    .... .... .... .... .... .... ..0. .... =     1 Gb full-duplex rate support: No (0)
                    .... .... .... .... .... .... .0.. .... =    10 Gb full-duplex rate support: No (0)
                    .... .... .... .... .... .... 0... .... =    Copper medium support: No (0)
                    .... .... .... .... .... ...0 .... .... =    Fiber medium support: No (0)
                    .... .... .... .... .... ..0. .... .... =    Auto-negotiation support: No (0)
                    .... .... .... .... .... .0.. .... .... =    Pause support: No (0)
                    .... .... .... .... .... 0... .... .... =    Asymmetric pause support: No (0)
                Port Advertsied Flags
                    .... .... .... .... .... .... .... ...0 =    10 Mb half-duplex rate support: No (0)
                    .... .... .... .... .... .... .... ..0. =    10 Mb full-duplex rate support: No (0)
                    .... .... .... .... .... .... .... .0.. =   100 Mb half-duplex rate support: No (0)
                    .... .... .... .... .... .... .... 0... =   100 Mb full-duplex rate support: No (0)
                    .... .... .... .... .... .... ...0 .... =     1 Gb half-duplex rate support: No (0)
                    .... .... .... .... .... .... ..0. .... =     1 Gb full-duplex rate support: No (0)
                    .... .... .... .... .... .... .0.. .... =    10 Gb full-duplex rate support: No (0)
                    .... .... .... .... .... .... 0... .... =    Copper medium support: No (0)
                    .... .... .... .... .... ...0 .... .... =    Fiber medium support: No (0)
                    .... .... .... .... .... ..0. .... .... =    Auto-negotiation support: No (0)
                    .... .... .... .... .... .0.. .... .... =    Pause support: No (0)
                    .... .... .... .... .... 0... .... .... =    Asymmetric pause support: No (0)
                Port Supported Flags
                    .... .... .... .... .... .... .... ...0 =    10 Mb half-duplex rate support: No (0)
                    .... .... .... .... .... .... .... ..0. =    10 Mb full-duplex rate support: No (0)
                    .... .... .... .... .... .... .... .0.. =   100 Mb half-duplex rate support: No (0)
                    .... .... .... .... .... .... .... 0... =   100 Mb full-duplex rate support: No (0)
                    .... .... .... .... .... .... ...0 .... =     1 Gb half-duplex rate support: No (0)
                    .... .... .... .... .... .... ..0. .... =     1 Gb full-duplex rate support: No (0)
                    .... .... .... .... .... .... .0.. .... =    10 Gb full-duplex rate support: No (0)
                    .... .... .... .... .... .... 0... .... =    Copper medium support: No (0)
                    .... .... .... .... .... ...0 .... .... =    Fiber medium support: No (0)
                    .... .... .... .... .... ..0. .... .... =    Auto-negotiation support: No (0)
                    .... .... .... .... .... .0.. .... .... =    Pause support: No (0)
                    .... .... .... .... .... 0... .... .... =    Asymmetric pause support: No (0)
                Port Peer Flags
                    .... .... .... .... .... .... .... ...0 =    10 Mb half-duplex rate support: No (0)
                    .... .... .... .... .... .... .... ..0. =    10 Mb full-duplex rate support: No (0)
                    .... .... .... .... .... .... .... .0.. =   100 Mb half-duplex rate support: No (0)
                    .... .... .... .... .... .... .... 0... =   100 Mb full-duplex rate support: No (0)
                    .... .... .... .... .... .... ...0 .... =     1 Gb half-duplex rate support: No (0)
                    .... .... .... .... .... .... ..0. .... =     1 Gb full-duplex rate support: No (0)
                    .... .... .... .... .... .... .0.. .... =    10 Gb full-duplex rate support: No (0)
                    .... .... .... .... .... .... 0... .... =    Copper medium support: No (0)
                    .... .... .... .... .... ...0 .... .... =    Fiber medium support: No (0)
                    .... .... .... .... .... ..0. .... .... =    Auto-negotiation support: No (0)
                    .... .... .... .... .... .0.. .... .... =    Pause support: No (0)
                    .... .... .... .... .... 0... .... .... =    Asymmetric pause support: No (0)
            Physical Port
                Port #: 1
                MAC Address: 6e:2f:90:06:b5:bb (6e:2f:90:06:b5:bb)
                Port Name: s1-eth1
                Port Config Flags
                    .... .... .... .... .... .... .... ...0 =   Port is administratively down: No (0)
                    .... .... .... .... .... .... .... ..0. =   Disable 802.1D spanning tree on port: No (0)
                    .... .... .... .... .... .... .... .0.. =   Drop non-802.1D packets received on port: No (0)
                    .... .... .... .... .... .... .... 0... =   Drop received 802.1D STP packets: No (0)
                    .... .... .... .... .... .... ...0 .... =   Do not include this port when flooding: No (0)
                    .... .... .... .... .... .... ..0. .... =   Drop packets forwarded to port: No (0)
                    .... .... .... .... .... .... .0.. .... =   Do not send packet-in msgs for port: No (0)
                Port State Flags
                    .... .... .... .... .... .... .... ...1 =   No physical link present: 1
                    STP state: Not learning or relaying frames
                Port Current Flags
                    .... .... .... .... .... .... .... ...0 =    10 Mb half-duplex rate support: No (0)
                    .... .... .... .... .... .... .... ..0. =    10 Mb full-duplex rate support: No (0)
                    .... .... .... .... .... .... .... .0.. =   100 Mb half-duplex rate support: No (0)
                    .... .... .... .... .... .... .... 0... =   100 Mb full-duplex rate support: No (0)
                    .... .... .... .... .... .... ...0 .... =     1 Gb half-duplex rate support: No (0)
                    .... .... .... .... .... .... ..0. .... =     1 Gb full-duplex rate support: No (0)
                    .... .... .... .... .... .... .1.. .... =    10 Gb full-duplex rate support: Yes (1)
                    .... .... .... .... .... .... 1... .... =    Copper medium support: Yes (1)
                    .... .... .... .... .... ...0 .... .... =    Fiber medium support: No (0)
                    .... .... .... .... .... ..0. .... .... =    Auto-negotiation support: No (0)
                    .... .... .... .... .... .0.. .... .... =    Pause support: No (0)
                    .... .... .... .... .... 0... .... .... =    Asymmetric pause support: No (0)
                Port Advertsied Flags
                    .... .... .... .... .... .... .... ...0 =    10 Mb half-duplex rate support: No (0)
                    .... .... .... .... .... .... .... ..0. =    10 Mb full-duplex rate support: No (0)
                    .... .... .... .... .... .... .... .0.. =   100 Mb half-duplex rate support: No (0)
                    .... .... .... .... .... .... .... 0... =   100 Mb full-duplex rate support: No (0)
                    .... .... .... .... .... .... ...0 .... =     1 Gb half-duplex rate support: No (0)
                    .... .... .... .... .... .... ..0. .... =     1 Gb full-duplex rate support: No (0)
                    .... .... .... .... .... .... .0.. .... =    10 Gb full-duplex rate support: No (0)
                    .... .... .... .... .... .... 0... .... =    Copper medium support: No (0)
                    .... .... .... .... .... ...0 .... .... =    Fiber medium support: No (0)
                    .... .... .... .... .... ..0. .... .... =    Auto-negotiation support: No (0)
                    .... .... .... .... .... .0.. .... .... =    Pause support: No (0)
                    .... .... .... .... .... 0... .... .... =    Asymmetric pause support: No (0)
                Port Supported Flags
                    .... .... .... .... .... .... .... ...0 =    10 Mb half-duplex rate support: No (0)
                    .... .... .... .... .... .... .... ..0. =    10 Mb full-duplex rate support: No (0)
                    .... .... .... .... .... .... .... .0.. =   100 Mb half-duplex rate support: No (0)
                    .... .... .... .... .... .... .... 0... =   100 Mb full-duplex rate support: No (0)
                    .... .... .... .... .... .... ...0 .... =     1 Gb half-duplex rate support: No (0)
                    .... .... .... .... .... .... ..0. .... =     1 Gb full-duplex rate support: No (0)
                    .... .... .... .... .... .... .0.. .... =    10 Gb full-duplex rate support: No (0)
                    .... .... .... .... .... .... 0... .... =    Copper medium support: No (0)
                    .... .... .... .... .... ...0 .... .... =    Fiber medium support: No (0)
                    .... .... .... .... .... ..0. .... .... =    Auto-negotiation support: No (0)
                    .... .... .... .... .... .0.. .... .... =    Pause support: No (0)
                    .... .... .... .... .... 0... .... .... =    Asymmetric pause support: No (0)
                Port Peer Flags
                    .... .... .... .... .... .... .... ...0 =    10 Mb half-duplex rate support: No (0)
                    .... .... .... .... .... .... .... ..0. =    10 Mb full-duplex rate support: No (0)
                    .... .... .... .... .... .... .... .0.. =   100 Mb half-duplex rate support: No (0)
                    .... .... .... .... .... .... .... 0... =   100 Mb full-duplex rate support: No (0)
                    .... .... .... .... .... .... ...0 .... =     1 Gb half-duplex rate support: No (0)
                    .... .... .... .... .... .... ..0. .... =     1 Gb full-duplex rate support: No (0)
                    .... .... .... .... .... .... .0.. .... =    10 Gb full-duplex rate support: No (0)
                    .... .... .... .... .... .... 0... .... =    Copper medium support: No (0)
                    .... .... .... .... .... ...0 .... .... =    Fiber medium support: No (0)
                    .... .... .... .... .... ..0. .... .... =    Auto-negotiation support: No (0)
                    .... .... .... .... .... .0.. .... .... =    Pause support: No (0)
                    .... .... .... .... .... 0... .... .... =    Asymmetric pause support: No (0)

0000  00 00 00 00 00 00 00 00 00 00 00 00 08 00 45 00   ..............E.
0010  00 e4 09 a8 40 00 40 06 32 6a 7f 00 00 01 7f 00   ....@.@.2j......
0020  00 01 a2 1c 19 e9 4f ec a9 92 9e b9 26 92 80 18   ......O.....&...
0030  02 01 fe d8 00 00 01 01 08 0a 00 00 a0 35 00 00   .............5..
0040  a0 35 01 06 00 b0 00 00 00 13 00 00 00 00 00 00   .5..............
0050  00 01 00 00 01 00 ff 00 00 00 00 00 00 c7 00 00   ................
0060  0f ff 00 02 ae 20 82 54 0a 8c 73 31 2d 65 74 68   ..... .T..s1-eth
0070  32 00 00 00 00 00 00 00 00 00 00 00 00 00 00 00   2...............
0080  00 00 00 00 00 c0 00 00 00 00 00 00 00 00 00 00   ................
0090  00 00 ff fe 2e f2 ce 76 47 48 73 31 00 00 00 00   .......vGHs1....
00a0  00 00 00 00 00 00 00 00 00 00 00 00 00 01 00 00   ................
00b0  00 01 00 00 00 00 00 00 00 00 00 00 00 00 00 00   ................
00c0  00 00 00 01 6e 2f 90 06 b5 bb 73 31 2d 65 74 68   ....n/....s1-eth
00d0  31 00 00 00 00 00 00 00 00 00 00 00 00 00 00 00   1...............
00e0  00 01 00 00 00 c0 00 00 00 00 00 00 00 00 00 00   ................
00f0  00 00                                             ..
No.     Time        Source                Destination           Protocol Length Info
    671 49.266200   127.0.0.1             127.0.0.1             OFP      78     Set Config (CSM) (12B)

Frame 671: 78 bytes on wire (624 bits), 78 bytes captured (624 bits)
    Arrival Time: Dec 11, 2013 09:45:59.514999000 PST
    Epoch Time: 1386783959.514999000 seconds
    [Time delta from previous captured frame: 0.002182000 seconds]
    [Time delta from previous displayed frame: 0.002193000 seconds]
    [Time since reference or first frame: 49.266200000 seconds]
    Frame Number: 671
    Frame Length: 78 bytes (624 bits)
    Capture Length: 78 bytes (624 bits)
    [Frame is marked: False]
    [Frame is ignored: False]
    [Protocols in frame: eth:ip:tcp:of]
    [Coloring Rule Name: of]
    [Coloring Rule String: of]
Ethernet II, Src: 00:00:00_00:00:00 (00:00:00:00:00:00), Dst: 00:00:00_00:00:00 (00:00:00:00:00:00)
    Destination: 00:00:00_00:00:00 (00:00:00:00:00:00)
        Address: 00:00:00_00:00:00 (00:00:00:00:00:00)
        .... ...0 .... .... .... .... = IG bit: Individual address (unicast)
        .... ..0. .... .... .... .... = LG bit: Globally unique address (factory default)
    Source: 00:00:00_00:00:00 (00:00:00:00:00:00)
        Address: 00:00:00_00:00:00 (00:00:00:00:00:00)
        .... ...0 .... .... .... .... = IG bit: Individual address (unicast)
        .... ..0. .... .... .... .... = LG bit: Globally unique address (factory default)
    Type: IP (0x0800)
Internet Protocol Version 4, Src: 127.0.0.1 (127.0.0.1), Dst: 127.0.0.1 (127.0.0.1)
    Version: 4
    Header length: 20 bytes
    Differentiated Services Field: 0x00 (DSCP 0x00: Default; ECN: 0x00: Not-ECT (Not ECN-Capable Transport))
        0000 00.. = Differentiated Services Codepoint: Default (0x00)
        .... ..00 = Explicit Congestion Notification: Not-ECT (Not ECN-Capable Transport) (0x00)
    Total Length: 64
    Identification: 0x86ac (34476)
    Flags: 0x02 (Don't Fragment)
        0... .... = Reserved bit: Not set
        .1.. .... = Don't fragment: Set
        ..0. .... = More fragments: Not set
    Fragment offset: 0
    Time to live: 64
    Protocol: TCP (6)
    Header checksum: 0xb609 [correct]
        [Good: True]
        [Bad: False]
    Source: 127.0.0.1 (127.0.0.1)
    Destination: 127.0.0.1 (127.0.0.1)
Transmission Control Protocol, Src Port: 6633 (6633), Dst Port: 41500 (41500), Seq: 17, Ack: 185, Len: 12
    Source port: 6633 (6633)
    Destination port: 41500 (41500)
    [Stream index: 2]
    Sequence number: 17    (relative sequence number)
    [Next sequence number: 29    (relative sequence number)]
    Acknowledgement number: 185    (relative ack number)
    Header length: 32 bytes
    Flags: 0x018 (PSH, ACK)
        000. .... .... = Reserved: Not set
        ...0 .... .... = Nonce: Not set
        .... 0... .... = Congestion Window Reduced (CWR): Not set
        .... .0.. .... = ECN-Echo: Not set
        .... ..0. .... = Urgent: Not set
        .... ...1 .... = Acknowledgement: Set
        .... .... 1... = Push: Set
        .... .... .0.. = Reset: Not set
        .... .... ..0. = Syn: Not set
        .... .... ...0 = Fin: Not set
    Window size value: 512
    [Calculated window size: 32768]
    [Window size scaling factor: 64]
    Checksum: 0xfe34 [validation disabled]
        [Good Checksum: False]
        [Bad Checksum: False]
    Options: (12 bytes)
        No-Operation (NOP)
        No-Operation (NOP)
        Timestamps: TSval 41014, TSecr 41013
            Kind: Timestamp (8)
            Length: 10
            Timestamp value: 41014
            Timestamp echo reply: 41013
    [SEQ/ACK analysis]
        [Bytes in flight: 12]
    [PDU Size: 12]
OpenFlow Protocol
    Header
        Version: 0x01
        Type: Set Config (CSM) (9)
        Length: 12
        Transaction ID: 20
    Switch Configuration
        Flags
            .... .... .... ..00 =   Handling of IP fragments: No special fragment handling (0)
        Max Bytes of New Flow to Send to Controller: 128

0000  00 00 00 00 00 00 00 00 00 00 00 00 08 00 45 00   ..............E.
0010  00 40 86 ac 40 00 40 06 b6 09 7f 00 00 01 7f 00   .@..@.@.........
0020  00 01 19 e9 a2 1c 9e b9 26 92 4f ec aa 42 80 18   ........&.O..B..
0030  02 00 fe 34 00 00 01 01 08 0a 00 00 a0 36 00 00   ...4.........6..
0040  a0 35 01 09 00 0c 00 00 00 14 00 00 00 80         .5............
No.     Time        Source                Destination           Protocol Length Info
    672 49.268789   ::                    ff02::16              OFP+ICMPv6 174    Packet In (AM) (BufID=256) (108B) => Multicast Listener Report Message v2

Frame 672: 174 bytes on wire (1392 bits), 174 bytes captured (1392 bits)
    Arrival Time: Dec 11, 2013 09:45:59.517588000 PST
    Epoch Time: 1386783959.517588000 seconds
    [Time delta from previous captured frame: 0.002589000 seconds]
    [Time delta from previous displayed frame: 0.002589000 seconds]
    [Time since reference or first frame: 49.268789000 seconds]
    Frame Number: 672
    Frame Length: 174 bytes (1392 bits)
    Capture Length: 174 bytes (1392 bits)
    [Frame is marked: False]
    [Frame is ignored: False]
    [Protocols in frame: eth:ip:tcp:of:eth:ipv6:icmpv6]
    [Coloring Rule Name: of]
    [Coloring Rule String: of]
Ethernet II, Src: 00:00:00_00:00:00 (00:00:00:00:00:00), Dst: 00:00:00_00:00:00 (00:00:00:00:00:00)
    Destination: 00:00:00_00:00:00 (00:00:00:00:00:00)
        Address: 00:00:00_00:00:00 (00:00:00:00:00:00)
        .... ...0 .... .... .... .... = IG bit: Individual address (unicast)
        .... ..0. .... .... .... .... = LG bit: Globally unique address (factory default)
    Source: 00:00:00_00:00:00 (00:00:00:00:00:00)
        Address: 00:00:00_00:00:00 (00:00:00:00:00:00)
        .... ...0 .... .... .... .... = IG bit: Individual address (unicast)
        .... ..0. .... .... .... .... = LG bit: Globally unique address (factory default)
    Type: IP (0x0800)
Internet Protocol Version 4, Src: 127.0.0.1 (127.0.0.1), Dst: 127.0.0.1 (127.0.0.1)
    Version: 4
    Header length: 20 bytes
    Differentiated Services Field: 0x00 (DSCP 0x00: Default; ECN: 0x00: Not-ECT (Not ECN-Capable Transport))
        0000 00.. = Differentiated Services Codepoint: Default (0x00)
        .... ..00 = Explicit Congestion Notification: Not-ECT (Not ECN-Capable Transport) (0x00)
    Total Length: 160
    Identification: 0x09a9 (2473)
    Flags: 0x02 (Don't Fragment)
        0... .... = Reserved bit: Not set
        .1.. .... = Don't fragment: Set
        ..0. .... = More fragments: Not set
    Fragment offset: 0
    Time to live: 64
    Protocol: TCP (6)
    Header checksum: 0x32ad [correct]
        [Good: True]
        [Bad: False]
    Source: 127.0.0.1 (127.0.0.1)
    Destination: 127.0.0.1 (127.0.0.1)
Transmission Control Protocol, Src Port: 41500 (41500), Dst Port: 6633 (6633), Seq: 185, Ack: 29, Len: 108
    Source port: 41500 (41500)
    Destination port: 6633 (6633)
    [Stream index: 2]
    Sequence number: 185    (relative sequence number)
    [Next sequence number: 293    (relative sequence number)]
    Acknowledgement number: 29    (relative ack number)
    Header length: 32 bytes
    Flags: 0x018 (PSH, ACK)
        000. .... .... = Reserved: Not set
        ...0 .... .... = Nonce: Not set
        .... 0... .... = Congestion Window Reduced (CWR): Not set
        .... .0.. .... = ECN-Echo: Not set
        .... ..0. .... = Urgent: Not set
        .... ...1 .... = Acknowledgement: Set
        .... .... 1... = Push: Set
        .... .... .0.. = Reset: Not set
        .... .... ..0. = Syn: Not set
        .... .... ...0 = Fin: Not set
    Window size value: 513
    [Calculated window size: 32832]
    [Window size scaling factor: 64]
    Checksum: 0xfe94 [validation disabled]
        [Good Checksum: False]
        [Bad Checksum: False]
    Options: (12 bytes)
        No-Operation (NOP)
        No-Operation (NOP)
        Timestamps: TSval 41015, TSecr 41014
            Kind: Timestamp (8)
            Length: 10
            Timestamp value: 41015
            Timestamp echo reply: 41014
    [SEQ/ACK analysis]
        [This is an ACK to the segment in frame: 671]
        [The RTT to ACK the segment was: 0.002589000 seconds]
        [Bytes in flight: 108]
    [PDU Size: 108]
OpenFlow Protocol
    Header
        Version: 0x01
        Type: Packet In (AM) (10)
        Length: 108
        Transaction ID: 0
    Packet In
        Buffer ID: 256
        Frame Total Length: 90
        Frame Recv Port: 2
        Reason Sent: No matching flow (0)
        Frame Data: 3333000000167a8ebe84fa1286dd60000000002400010000...
            Ethernet II, Src: 7a:8e:be:84:fa:12 (7a:8e:be:84:fa:12), Dst: IPv6mcast_00:00:00:16 (33:33:00:00:00:16)
                Destination: IPv6mcast_00:00:00:16 (33:33:00:00:00:16)
                    Address: IPv6mcast_00:00:00:16 (33:33:00:00:00:16)
                    .... ...1 .... .... .... .... = IG bit: Group address (multicast/broadcast)
                    .... ..1. .... .... .... .... = LG bit: Locally administered address (this is NOT the factory default)
                Source: 7a:8e:be:84:fa:12 (7a:8e:be:84:fa:12)
                    Address: 7a:8e:be:84:fa:12 (7a:8e:be:84:fa:12)
                    .... ...0 .... .... .... .... = IG bit: Individual address (unicast)
                    .... ..1. .... .... .... .... = LG bit: Locally administered address (this is NOT the factory default)
                Type: IPv6 (0x86dd)
            Internet Protocol Version 6, Src: :: (::), Dst: ff02::16 (ff02::16)
                0110 .... = Version: 6
                    [0110 .... = This field makes the filter "ip.version == 6" possible: 6]
                .... 0000 0000 .... .... .... .... .... = Traffic class: 0x00000000
                    .... 0000 00.. .... .... .... .... .... = Differentiated Services Field: Default (0x00000000)
                    .... .... ..0. .... .... .... .... .... = ECN-Capable Transport (ECT): Not set
                    .... .... ...0 .... .... .... .... .... = ECN-CE: Not set
                .... .... .... 0000 0000 0000 0000 0000 = Flowlabel: 0x00000000
                Payload length: 36
                Next header: IPv6 hop-by-hop option (0x00)
                Hop limit: 1
                Source: :: (::)
                Destination: ff02::16 (ff02::16)
                Hop-by-Hop Option
                    Next header: ICMPv6 (0x3a)
                    Length: 0 (8 bytes)
                    Router alert: MLD (4 bytes)
                    PadN: 2 bytes
            Internet Control Message Protocol v6
                Type: Multicast Listener Report Message v2 (143)
                Code: 0
                Checksum: 0x74f3 [correct]
                Reserved: 0000
                Number of Multicast Address Records: 1
                Multicast Address Record Changed to exclude: ff02::1:ff84:fa12
                    Record Type: Changed to exclude (4)
                    Aux Data Len: 0
                    Number of Sources: 0
                    Multicast Address: ff02::1:ff84:fa12 (ff02::1:ff84:fa12)

0000  00 00 00 00 00 00 00 00 00 00 00 00 08 00 45 00   ..............E.
0010  00 a0 09 a9 40 00 40 06 32 ad 7f 00 00 01 7f 00   ....@.@.2.......
0020  00 01 a2 1c 19 e9 4f ec aa 42 9e b9 26 9e 80 18   ......O..B..&...
0030  02 01 fe 94 00 00 01 01 08 0a 00 00 a0 37 00 00   .............7..
0040  a0 36 01 0a 00 6c 00 00 00 00 00 00 01 00 00 5a   .6...l.........Z
0050  00 02 00 00 33 33 00 00 00 16 7a 8e be 84 fa 12   ....33....z.....
0060  86 dd 60 00 00 00 00 24 00 01 00 00 00 00 00 00   ..`....$........
0070  00 00 00 00 00 00 00 00 00 00 ff 02 00 00 00 00   ................
0080  00 00 00 00 00 00 00 00 00 16 3a 00 05 02 00 00   ..........:.....
0090  01 00 8f 00 74 f3 00 00 00 01 04 00 00 00 ff 02   ....t...........
00a0  00 00 00 00 00 00 00 00 00 01 ff 84 fa 12         ..............
No.     Time        Source                Destination           Protocol Length Info
    673 49.268820   127.0.0.1             127.0.0.1             OFP      146    Barrier Request (CSM) (8B)

Frame 673: 146 bytes on wire (1168 bits), 146 bytes captured (1168 bits)
    Arrival Time: Dec 11, 2013 09:45:59.517619000 PST
    Epoch Time: 1386783959.517619000 seconds
    [Time delta from previous captured frame: 0.000031000 seconds]
    [Time delta from previous displayed frame: 0.000031000 seconds]
    [Time since reference or first frame: 49.268820000 seconds]
    Frame Number: 673
    Frame Length: 146 bytes (1168 bits)
    Capture Length: 146 bytes (1168 bits)
    [Frame is marked: False]
    [Frame is ignored: False]
    [Protocols in frame: eth:ip:tcp:of]
    [Coloring Rule Name: of]
    [Coloring Rule String: of]
Ethernet II, Src: 00:00:00_00:00:00 (00:00:00:00:00:00), Dst: 00:00:00_00:00:00 (00:00:00:00:00:00)
    Destination: 00:00:00_00:00:00 (00:00:00:00:00:00)
        Address: 00:00:00_00:00:00 (00:00:00:00:00:00)
        .... ...0 .... .... .... .... = IG bit: Individual address (unicast)
        .... ..0. .... .... .... .... = LG bit: Globally unique address (factory default)
    Source: 00:00:00_00:00:00 (00:00:00:00:00:00)
        Address: 00:00:00_00:00:00 (00:00:00:00:00:00)
        .... ...0 .... .... .... .... = IG bit: Individual address (unicast)
        .... ..0. .... .... .... .... = LG bit: Globally unique address (factory default)
    Type: IP (0x0800)
Internet Protocol Version 4, Src: 127.0.0.1 (127.0.0.1), Dst: 127.0.0.1 (127.0.0.1)
    Version: 4
    Header length: 20 bytes
    Differentiated Services Field: 0x00 (DSCP 0x00: Default; ECN: 0x00: Not-ECT (Not ECN-Capable Transport))
        0000 00.. = Differentiated Services Codepoint: Default (0x00)
        .... ..00 = Explicit Congestion Notification: Not-ECT (Not ECN-Capable Transport) (0x00)
    Total Length: 132
    Identification: 0x86ad (34477)
    Flags: 0x02 (Don't Fragment)
        0... .... = Reserved bit: Not set
        .1.. .... = Don't fragment: Set
        ..0. .... = More fragments: Not set
    Fragment offset: 0
    Time to live: 64
    Protocol: TCP (6)
    Header checksum: 0xb5c4 [correct]
        [Good: True]
        [Bad: False]
    Source: 127.0.0.1 (127.0.0.1)
    Destination: 127.0.0.1 (127.0.0.1)
Transmission Control Protocol, Src Port: 6633 (6633), Dst Port: 41500 (41500), Seq: 29, Ack: 293, Len: 80
    Source port: 6633 (6633)
    Destination port: 41500 (41500)
    [Stream index: 2]
    Sequence number: 29    (relative sequence number)
    [Next sequence number: 109    (relative sequence number)]
    Acknowledgement number: 293    (relative ack number)
    Header length: 32 bytes
    Flags: 0x018 (PSH, ACK)
        000. .... .... = Reserved: Not set
        ...0 .... .... = Nonce: Not set
        .... 0... .... = Congestion Window Reduced (CWR): Not set
        .... .0.. .... = ECN-Echo: Not set
        .... ..0. .... = Urgent: Not set
        .... ...1 .... = Acknowledgement: Set
        .... .... 1... = Push: Set
        .... .... .0.. = Reset: Not set
        .... .... ..0. = Syn: Not set
        .... .... ...0 = Fin: Not set
    Window size value: 512
    [Calculated window size: 32768]
    [Window size scaling factor: 64]
    Checksum: 0xfe78 [validation disabled]
        [Good Checksum: False]
        [Bad Checksum: False]
    Options: (12 bytes)
        No-Operation (NOP)
        No-Operation (NOP)
        Timestamps: TSval 41015, TSecr 41015
            Kind: Timestamp (8)
            Length: 10
            Timestamp value: 41015
            Timestamp echo reply: 41015
    [SEQ/ACK analysis]
        [This is an ACK to the segment in frame: 672]
        [The RTT to ACK the segment was: 0.000031000 seconds]
        [Bytes in flight: 80]
    [PDU Size: 72]
    [PDU Size: 8]
OpenFlow Protocol
    Header
        Version: 0x01
        Type: Flow Mod (CSM) (14)
        Length: 72
        Transaction ID: 21
    Flow Modification
        Match
            Match Types
                .... .... .... .... .... .... .... ...1 =   Input port: Wildcard (1)
                .... .... .... .... .... .... .... ..1. =   VLAN ID: Wildcard (1)
                .... .... .... .... .... .... .... .1.. =   Ethernet Src Addr: Wildcard (1)
                .... .... .... .... .... .... .... 1... =   Ethernet Dst Addr: Wildcard (1)
                .... .... .... .... .... .... ...1 .... =   Ethernet Type: Wildcard (1)
                .... .... .... .... .... .... ..0. .... =   IP Protocol: Exact (0)
                .... .... .... .... .... .... .0.. .... =   TCP/UDP Src Port: Exact (0)
                .... .... .... .... .... .... 0... .... =   TCP/UDP Dst Port: Exact (0)
                .... .... .... .... ..00 0000 .... .... =   IP Src Addr Mask: /32 (0)
                .... .... .... 0000 00.. .... .... .... =   IP Dst Addr Mask: /32 (0)
                .... .... ...1 .... .... .... .... .... =   VLAN priority: Wildcard (1)
                .... .... ..0. .... .... .... .... .... =   IPv4 DSCP: Exact (0)
            IPv4 DSCP: 0
            Protocol: IPv6 hop-by-hop option (0x00)
            IP Src Addr: 0.0.0.0 (0.0.0.0)
            IP Dst Addr: 0.0.0.0 (0.0.0.0)
            TCP/UDP Src Port: 0 (0)
            TCP/UDP Dst Port: 0 (0)
        Cookie: 0x0000000000000000
        Command: Delete all matching flows (3)
        Idle Time (sec) Before Discarding: 0
        Max Time (sec) Before Discarding: 0
        Priority: 32768
        Buffer ID: None
        Out Port (delete* only): None  (not associated with a physical port)
        Flags
            .... .... .... ...0 = Send flow removed: No (0)
            .... .... .... ..0. = Check for overlap before adding flow: No (0)
            .... .... .... .0.. = Install flow into emergecy flow table: No (0)
        Output Action(s)
            Warning: No actions were specified
OpenFlow Protocol
    Header
        Version: 0x01
        Type: Barrier Request (CSM) (18)
        Length: 8
        Transaction ID: 22

0000  00 00 00 00 00 00 00 00 00 00 00 00 08 00 45 00   ..............E.
0010  00 84 86 ad 40 00 40 06 b5 c4 7f 00 00 01 7f 00   ....@.@.........
0020  00 01 19 e9 a2 1c 9e b9 26 9e 4f ec aa ae 80 18   ........&.O.....
0030  02 00 fe 78 00 00 01 01 08 0a 00 00 a0 37 00 00   ...x.........7..
0040  a0 37 01 0e 00 48 00 00 00 15 00 10 00 1f 00 00   .7...H..........
0050  00 00 00 00 00 00 00 00 00 00 00 00 00 00 00 00   ................
0060  00 00 00 00 00 00 00 00 00 00 00 00 00 00 00 00   ................
0070  00 00 00 00 00 00 00 00 00 00 00 03 00 00 00 00   ................
0080  80 00 ff ff ff ff ff ff 00 00 01 12 00 08 00 00   ................
0090  00 16                                             ..
No.     Time        Source                Destination           Protocol Length Info
    674 49.268960   127.0.0.1             127.0.0.1             OFP      74     Barrier Reply (CSM) (8B)

Frame 674: 74 bytes on wire (592 bits), 74 bytes captured (592 bits)
    Arrival Time: Dec 11, 2013 09:45:59.517759000 PST
    Epoch Time: 1386783959.517759000 seconds
    [Time delta from previous captured frame: 0.000140000 seconds]
    [Time delta from previous displayed frame: 0.000140000 seconds]
    [Time since reference or first frame: 49.268960000 seconds]
    Frame Number: 674
    Frame Length: 74 bytes (592 bits)
    Capture Length: 74 bytes (592 bits)
    [Frame is marked: False]
    [Frame is ignored: False]
    [Protocols in frame: eth:ip:tcp:of]
    [Coloring Rule Name: of]
    [Coloring Rule String: of]
Ethernet II, Src: 00:00:00_00:00:00 (00:00:00:00:00:00), Dst: 00:00:00_00:00:00 (00:00:00:00:00:00)
    Destination: 00:00:00_00:00:00 (00:00:00:00:00:00)
        Address: 00:00:00_00:00:00 (00:00:00:00:00:00)
        .... ...0 .... .... .... .... = IG bit: Individual address (unicast)
        .... ..0. .... .... .... .... = LG bit: Globally unique address (factory default)
    Source: 00:00:00_00:00:00 (00:00:00:00:00:00)
        Address: 00:00:00_00:00:00 (00:00:00:00:00:00)
        .... ...0 .... .... .... .... = IG bit: Individual address (unicast)
        .... ..0. .... .... .... .... = LG bit: Globally unique address (factory default)
    Type: IP (0x0800)
Internet Protocol Version 4, Src: 127.0.0.1 (127.0.0.1), Dst: 127.0.0.1 (127.0.0.1)
    Version: 4
    Header length: 20 bytes
    Differentiated Services Field: 0x00 (DSCP 0x00: Default; ECN: 0x00: Not-ECT (Not ECN-Capable Transport))
        0000 00.. = Differentiated Services Codepoint: Default (0x00)
        .... ..00 = Explicit Congestion Notification: Not-ECT (Not ECN-Capable Transport) (0x00)
    Total Length: 60
    Identification: 0x09aa (2474)
    Flags: 0x02 (Don't Fragment)
        0... .... = Reserved bit: Not set
        .1.. .... = Don't fragment: Set
        ..0. .... = More fragments: Not set
    Fragment offset: 0
    Time to live: 64
    Protocol: TCP (6)
    Header checksum: 0x3310 [correct]
        [Good: True]
        [Bad: False]
    Source: 127.0.0.1 (127.0.0.1)
    Destination: 127.0.0.1 (127.0.0.1)
Transmission Control Protocol, Src Port: 41500 (41500), Dst Port: 6633 (6633), Seq: 293, Ack: 109, Len: 8
    Source port: 41500 (41500)
    Destination port: 6633 (6633)
    [Stream index: 2]
    Sequence number: 293    (relative sequence number)
    [Next sequence number: 301    (relative sequence number)]
    Acknowledgement number: 109    (relative ack number)
    Header length: 32 bytes
    Flags: 0x018 (PSH, ACK)
        000. .... .... = Reserved: Not set
        ...0 .... .... = Nonce: Not set
        .... 0... .... = Congestion Window Reduced (CWR): Not set
        .... .0.. .... = ECN-Echo: Not set
        .... ..0. .... = Urgent: Not set
        .... ...1 .... = Acknowledgement: Set
        .... .... 1... = Push: Set
        .... .... .0.. = Reset: Not set
        .... .... ..0. = Syn: Not set
        .... .... ...0 = Fin: Not set
    Window size value: 512
    [Calculated window size: 32768]
    [Window size scaling factor: 64]
    Checksum: 0xfe30 [validation disabled]
        [Good Checksum: False]
        [Bad Checksum: False]
    Options: (12 bytes)
        No-Operation (NOP)
        No-Operation (NOP)
        Timestamps: TSval 41015, TSecr 41015
            Kind: Timestamp (8)
            Length: 10
            Timestamp value: 41015
            Timestamp echo reply: 41015
    [SEQ/ACK analysis]
        [This is an ACK to the segment in frame: 673]
        [The RTT to ACK the segment was: 0.000140000 seconds]
        [Bytes in flight: 8]
    [PDU Size: 8]
OpenFlow Protocol
    Header
        Version: 0x01
        Type: Barrier Reply (CSM) (19)
        Length: 8
        Transaction ID: 22

0000  00 00 00 00 00 00 00 00 00 00 00 00 08 00 45 00   ..............E.
0010  00 3c 09 aa 40 00 40 06 33 10 7f 00 00 01 7f 00   .<..@.@.3.......
0020  00 01 a2 1c 19 e9 4f ec aa ae 9e b9 26 ee 80 18   ......O.....&...
0030  02 00 fe 30 00 00 01 01 08 0a 00 00 a0 37 00 00   ...0.........7..
0040  a0 37 01 13 00 08 00 00 00 16                     .7........
No.     Time        Source                Destination           Protocol Length Info
    676 49.421709   ::                    ff02::1:ff84:fa12     OFP+ICMPv6 162    Packet In (AM) (BufID=257) (96B) => Neighbor Solicitation for fe80::788e:beff:fe84:fa12

Frame 676: 162 bytes on wire (1296 bits), 162 bytes captured (1296 bits)
    Arrival Time: Dec 11, 2013 09:45:59.670508000 PST
    Epoch Time: 1386783959.670508000 seconds
    [Time delta from previous captured frame: 0.112906000 seconds]
    [Time delta from previous displayed frame: 0.152749000 seconds]
    [Time since reference or first frame: 49.421709000 seconds]
    Frame Number: 676
    Frame Length: 162 bytes (1296 bits)
    Capture Length: 162 bytes (1296 bits)
    [Frame is marked: False]
    [Frame is ignored: False]
    [Protocols in frame: eth:ip:tcp:of:eth:ipv6:icmpv6]
    [Coloring Rule Name: of]
    [Coloring Rule String: of]
Ethernet II, Src: 00:00:00_00:00:00 (00:00:00:00:00:00), Dst: 00:00:00_00:00:00 (00:00:00:00:00:00)
    Destination: 00:00:00_00:00:00 (00:00:00:00:00:00)
        Address: 00:00:00_00:00:00 (00:00:00:00:00:00)
        .... ...0 .... .... .... .... = IG bit: Individual address (unicast)
        .... ..0. .... .... .... .... = LG bit: Globally unique address (factory default)
    Source: 00:00:00_00:00:00 (00:00:00:00:00:00)
        Address: 00:00:00_00:00:00 (00:00:00:00:00:00)
        .... ...0 .... .... .... .... = IG bit: Individual address (unicast)
        .... ..0. .... .... .... .... = LG bit: Globally unique address (factory default)
    Type: IP (0x0800)
Internet Protocol Version 4, Src: 127.0.0.1 (127.0.0.1), Dst: 127.0.0.1 (127.0.0.1)
    Version: 4
    Header length: 20 bytes
    Differentiated Services Field: 0x00 (DSCP 0x00: Default; ECN: 0x00: Not-ECT (Not ECN-Capable Transport))
        0000 00.. = Differentiated Services Codepoint: Default (0x00)
        .... ..00 = Explicit Congestion Notification: Not-ECT (Not ECN-Capable Transport) (0x00)
    Total Length: 148
    Identification: 0x09ab (2475)
    Flags: 0x02 (Don't Fragment)
        0... .... = Reserved bit: Not set
        .1.. .... = Don't fragment: Set
        ..0. .... = More fragments: Not set
    Fragment offset: 0
    Time to live: 64
    Protocol: TCP (6)
    Header checksum: 0x32b7 [correct]
        [Good: True]
        [Bad: False]
    Source: 127.0.0.1 (127.0.0.1)
    Destination: 127.0.0.1 (127.0.0.1)
Transmission Control Protocol, Src Port: 41500 (41500), Dst Port: 6633 (6633), Seq: 301, Ack: 109, Len: 96
    Source port: 41500 (41500)
    Destination port: 6633 (6633)
    [Stream index: 2]
    Sequence number: 301    (relative sequence number)
    [Next sequence number: 397    (relative sequence number)]
    Acknowledgement number: 109    (relative ack number)
    Header length: 32 bytes
    Flags: 0x018 (PSH, ACK)
        000. .... .... = Reserved: Not set
        ...0 .... .... = Nonce: Not set
        .... 0... .... = Congestion Window Reduced (CWR): Not set
        .... .0.. .... = ECN-Echo: Not set
        .... ..0. .... = Urgent: Not set
        .... ...1 .... = Acknowledgement: Set
        .... .... 1... = Push: Set
        .... .... .0.. = Reset: Not set
        .... .... ..0. = Syn: Not set
        .... .... ...0 = Fin: Not set
    Window size value: 512
    [Calculated window size: 32768]
    [Window size scaling factor: 64]
    Checksum: 0xfe88 [validation disabled]
        [Good Checksum: False]
        [Bad Checksum: False]
    Options: (12 bytes)
        No-Operation (NOP)
        No-Operation (NOP)
        Timestamps: TSval 41053, TSecr 41025
            Kind: Timestamp (8)
            Length: 10
            Timestamp value: 41053
            Timestamp echo reply: 41025
    [SEQ/ACK analysis]
        [Bytes in flight: 96]
    [PDU Size: 96]
OpenFlow Protocol
    Header
        Version: 0x01
        Type: Packet In (AM) (10)
        Length: 96
        Transaction ID: 0
    Packet In
        Buffer ID: 257
        Frame Total Length: 78
        Frame Recv Port: 2
        Reason Sent: No matching flow (0)
        Frame Data: 3333ff84fa127a8ebe84fa1286dd6000000000183aff0000...
            Ethernet II, Src: 7a:8e:be:84:fa:12 (7a:8e:be:84:fa:12), Dst: IPv6mcast_ff:84:fa:12 (33:33:ff:84:fa:12)
                Destination: IPv6mcast_ff:84:fa:12 (33:33:ff:84:fa:12)
                    Address: IPv6mcast_ff:84:fa:12 (33:33:ff:84:fa:12)
                    .... ...1 .... .... .... .... = IG bit: Group address (multicast/broadcast)
                    .... ..1. .... .... .... .... = LG bit: Locally administered address (this is NOT the factory default)
                Source: 7a:8e:be:84:fa:12 (7a:8e:be:84:fa:12)
                    Address: 7a:8e:be:84:fa:12 (7a:8e:be:84:fa:12)
                    .... ...0 .... .... .... .... = IG bit: Individual address (unicast)
                    .... ..1. .... .... .... .... = LG bit: Locally administered address (this is NOT the factory default)
                Type: IPv6 (0x86dd)
            Internet Protocol Version 6, Src: :: (::), Dst: ff02::1:ff84:fa12 (ff02::1:ff84:fa12)
                0110 .... = Version: 6
                    [0110 .... = This field makes the filter "ip.version == 6" possible: 6]
                .... 0000 0000 .... .... .... .... .... = Traffic class: 0x00000000
                    .... 0000 00.. .... .... .... .... .... = Differentiated Services Field: Default (0x00000000)
                    .... .... ..0. .... .... .... .... .... = ECN-Capable Transport (ECT): Not set
                    .... .... ...0 .... .... .... .... .... = ECN-CE: Not set
                .... .... .... 0000 0000 0000 0000 0000 = Flowlabel: 0x00000000
                Payload length: 24
                Next header: ICMPv6 (0x3a)
                Hop limit: 255
                Source: :: (::)
                Destination: ff02::1:ff84:fa12 (ff02::1:ff84:fa12)
            Internet Control Message Protocol v6
                Type: Neighbor Solicitation (135)
                Code: 0
                Checksum: 0x516a [correct]
                Reserved: 00000000
                Target Address: fe80::788e:beff:fe84:fa12 (fe80::788e:beff:fe84:fa12)

0000  00 00 00 00 00 00 00 00 00 00 00 00 08 00 45 00   ..............E.
0010  00 94 09 ab 40 00 40 06 32 b7 7f 00 00 01 7f 00   ....@.@.2.......
0020  00 01 a2 1c 19 e9 4f ec aa b6 9e b9 26 ee 80 18   ......O.....&...
0030  02 00 fe 88 00 00 01 01 08 0a 00 00 a0 5d 00 00   .............]..
0040  a0 41 01 0a 00 60 00 00 00 00 00 00 01 01 00 4e   .A...`.........N
0050  00 02 00 00 33 33 ff 84 fa 12 7a 8e be 84 fa 12   ....33....z.....
0060  86 dd 60 00 00 00 00 18 3a ff 00 00 00 00 00 00   ..`.....:.......
0070  00 00 00 00 00 00 00 00 00 00 ff 02 00 00 00 00   ................
0080  00 00 00 00 00 01 ff 84 fa 12 87 00 51 6a 00 00   ............Qj..
0090  00 00 fe 80 00 00 00 00 00 00 78 8e be ff fe 84   ..........x.....
00a0  fa 12                                             ..
No.     Time        Source                Destination           Protocol Length Info
    678 49.439513   127.0.0.1             127.0.0.1             OFP      90     Packet Out (CSM) (BufID=257) (24B)

Frame 678: 90 bytes on wire (720 bits), 90 bytes captured (720 bits)
    Arrival Time: Dec 11, 2013 09:45:59.688312000 PST
    Epoch Time: 1386783959.688312000 seconds
    [Time delta from previous captured frame: 0.017764000 seconds]
    [Time delta from previous displayed frame: 0.017804000 seconds]
    [Time since reference or first frame: 49.439513000 seconds]
    Frame Number: 678
    Frame Length: 90 bytes (720 bits)
    Capture Length: 90 bytes (720 bits)
    [Frame is marked: False]
    [Frame is ignored: False]
    [Protocols in frame: eth:ip:tcp:of]
    [Coloring Rule Name: of]
    [Coloring Rule String: of]
Ethernet II, Src: 00:00:00_00:00:00 (00:00:00:00:00:00), Dst: 00:00:00_00:00:00 (00:00:00:00:00:00)
    Destination: 00:00:00_00:00:00 (00:00:00:00:00:00)
        Address: 00:00:00_00:00:00 (00:00:00:00:00:00)
        .... ...0 .... .... .... .... = IG bit: Individual address (unicast)
        .... ..0. .... .... .... .... = LG bit: Globally unique address (factory default)
    Source: 00:00:00_00:00:00 (00:00:00:00:00:00)
        Address: 00:00:00_00:00:00 (00:00:00:00:00:00)
        .... ...0 .... .... .... .... = IG bit: Individual address (unicast)
        .... ..0. .... .... .... .... = LG bit: Globally unique address (factory default)
    Type: IP (0x0800)
Internet Protocol Version 4, Src: 127.0.0.1 (127.0.0.1), Dst: 127.0.0.1 (127.0.0.1)
    Version: 4
    Header length: 20 bytes
    Differentiated Services Field: 0x00 (DSCP 0x00: Default; ECN: 0x00: Not-ECT (Not ECN-Capable Transport))
        0000 00.. = Differentiated Services Codepoint: Default (0x00)
        .... ..00 = Explicit Congestion Notification: Not-ECT (Not ECN-Capable Transport) (0x00)
    Total Length: 76
    Identification: 0x86b0 (34480)
    Flags: 0x02 (Don't Fragment)
        0... .... = Reserved bit: Not set
        .1.. .... = Don't fragment: Set
        ..0. .... = More fragments: Not set
    Fragment offset: 0
    Time to live: 64
    Protocol: TCP (6)
    Header checksum: 0xb5f9 [correct]
        [Good: True]
        [Bad: False]
    Source: 127.0.0.1 (127.0.0.1)
    Destination: 127.0.0.1 (127.0.0.1)
Transmission Control Protocol, Src Port: 6633 (6633), Dst Port: 41500 (41500), Seq: 109, Ack: 397, Len: 24
    Source port: 6633 (6633)
    Destination port: 41500 (41500)
    [Stream index: 2]
    Sequence number: 109    (relative sequence number)
    [Next sequence number: 133    (relative sequence number)]
    Acknowledgement number: 397    (relative ack number)
    Header length: 32 bytes
    Flags: 0x018 (PSH, ACK)
        000. .... .... = Reserved: Not set
        ...0 .... .... = Nonce: Not set
        .... 0... .... = Congestion Window Reduced (CWR): Not set
        .... .0.. .... = ECN-Echo: Not set
        .... ..0. .... = Urgent: Not set
        .... ...1 .... = Acknowledgement: Set
        .... .... 1... = Push: Set
        .... .... .0.. = Reset: Not set
        .... .... ..0. = Syn: Not set
        .... .... ...0 = Fin: Not set
    Window size value: 512
    [Calculated window size: 32768]
    [Window size scaling factor: 64]
    Checksum: 0xfe40 [validation disabled]
        [Good Checksum: False]
        [Bad Checksum: False]
    Options: (12 bytes)
        No-Operation (NOP)
        No-Operation (NOP)
        Timestamps: TSval 41057, TSecr 41053
            Kind: Timestamp (8)
            Length: 10
            Timestamp value: 41057
            Timestamp echo reply: 41053
    [SEQ/ACK analysis]
        [Bytes in flight: 24]
    [PDU Size: 24]
OpenFlow Protocol
    Header
        Version: 0x01
        Type: Packet Out (CSM) (13)
        Length: 24
        Transaction ID: 23
    Packet Out
        Buffer ID: 257
        Frame Recv Port: 2
        Size of action array in bytes: 8
        Output Action(s)
            Action
                Type: Output to switch port (0)
                Len: 8
                Output port: Flood  (all physical ports except input port and those disabled by STP)
                Max Bytes to Send: 0
            # of Actions: 1

0000  00 00 00 00 00 00 00 00 00 00 00 00 08 00 45 00   ..............E.
0010  00 4c 86 b0 40 00 40 06 b5 f9 7f 00 00 01 7f 00   .L..@.@.........
0020  00 01 19 e9 a2 1c 9e b9 26 ee 4f ec ab 16 80 18   ........&.O.....
0030  02 00 fe 40 00 00 01 01 08 0a 00 00 a0 61 00 00   ...@.........a..
0040  a0 5d 01 0d 00 18 00 00 00 17 00 00 01 01 00 02   .]..............
0050  00 08 00 00 00 08 ff fb 00 00                     ..........
No.     Time        Source                Destination           Protocol Length Info
    683 49.969852   ::                    ff02::1:ff54:5fdd     OFP+ICMPv6 162    Packet In (AM) (BufID=258) (96B) => Neighbor Solicitation for fe80::68e6:beff:fe54:5fdd

Frame 683: 162 bytes on wire (1296 bits), 162 bytes captured (1296 bits)
    Arrival Time: Dec 11, 2013 09:46:00.218651000 PST
    Epoch Time: 1386783960.218651000 seconds
    [Time delta from previous captured frame: 0.231444000 seconds]
    [Time delta from previous displayed frame: 0.530339000 seconds]
    [Time since reference or first frame: 49.969852000 seconds]
    Frame Number: 683
    Frame Length: 162 bytes (1296 bits)
    Capture Length: 162 bytes (1296 bits)
    [Frame is marked: False]
    [Frame is ignored: False]
    [Protocols in frame: eth:ip:tcp:of:eth:ipv6:icmpv6]
    [Coloring Rule Name: of]
    [Coloring Rule String: of]
Ethernet II, Src: 00:00:00_00:00:00 (00:00:00:00:00:00), Dst: 00:00:00_00:00:00 (00:00:00:00:00:00)
    Destination: 00:00:00_00:00:00 (00:00:00:00:00:00)
        Address: 00:00:00_00:00:00 (00:00:00:00:00:00)
        .... ...0 .... .... .... .... = IG bit: Individual address (unicast)
        .... ..0. .... .... .... .... = LG bit: Globally unique address (factory default)
    Source: 00:00:00_00:00:00 (00:00:00:00:00:00)
        Address: 00:00:00_00:00:00 (00:00:00:00:00:00)
        .... ...0 .... .... .... .... = IG bit: Individual address (unicast)
        .... ..0. .... .... .... .... = LG bit: Globally unique address (factory default)
    Type: IP (0x0800)
Internet Protocol Version 4, Src: 127.0.0.1 (127.0.0.1), Dst: 127.0.0.1 (127.0.0.1)
    Version: 4
    Header length: 20 bytes
    Differentiated Services Field: 0x00 (DSCP 0x00: Default; ECN: 0x00: Not-ECT (Not ECN-Capable Transport))
        0000 00.. = Differentiated Services Codepoint: Default (0x00)
        .... ..00 = Explicit Congestion Notification: Not-ECT (Not ECN-Capable Transport) (0x00)
    Total Length: 148
    Identification: 0x09ad (2477)
    Flags: 0x02 (Don't Fragment)
        0... .... = Reserved bit: Not set
        .1.. .... = Don't fragment: Set
        ..0. .... = More fragments: Not set
    Fragment offset: 0
    Time to live: 64
    Protocol: TCP (6)
    Header checksum: 0x32b5 [correct]
        [Good: True]
        [Bad: False]
    Source: 127.0.0.1 (127.0.0.1)
    Destination: 127.0.0.1 (127.0.0.1)
Transmission Control Protocol, Src Port: 41500 (41500), Dst Port: 6633 (6633), Seq: 397, Ack: 133, Len: 96
    Source port: 41500 (41500)
    Destination port: 6633 (6633)
    [Stream index: 2]
    Sequence number: 397    (relative sequence number)
    [Next sequence number: 493    (relative sequence number)]
    Acknowledgement number: 133    (relative ack number)
    Header length: 32 bytes
    Flags: 0x018 (PSH, ACK)
        000. .... .... = Reserved: Not set
        ...0 .... .... = Nonce: Not set
        .... 0... .... = Congestion Window Reduced (CWR): Not set
        .... .0.. .... = ECN-Echo: Not set
        .... ..0. .... = Urgent: Not set
        .... ...1 .... = Acknowledgement: Set
        .... .... 1... = Push: Set
        .... .... .0.. = Reset: Not set
        .... .... ..0. = Syn: Not set
        .... .... ...0 = Fin: Not set
    Window size value: 512
    [Calculated window size: 32768]
    [Window size scaling factor: 64]
    Checksum: 0xfe88 [validation disabled]
        [Good Checksum: False]
        [Bad Checksum: False]
    Options: (12 bytes)
        No-Operation (NOP)
        No-Operation (NOP)
        Timestamps: TSval 41190, TSecr 41057
            Kind: Timestamp (8)
            Length: 10
            Timestamp value: 41190
            Timestamp echo reply: 41057
    [SEQ/ACK analysis]
        [Bytes in flight: 96]
    [PDU Size: 96]
OpenFlow Protocol
    Header
        Version: 0x01
        Type: Packet In (AM) (10)
        Length: 96
        Transaction ID: 0
    Packet In
        Buffer ID: 258
        Frame Total Length: 78
        Frame Recv Port: 1
        Reason Sent: No matching flow (0)
        Frame Data: 3333ff545fdd6ae6be545fdd86dd6000000000183aff0000...
            Ethernet II, Src: 6a:e6:be:54:5f:dd (6a:e6:be:54:5f:dd), Dst: IPv6mcast_ff:54:5f:dd (33:33:ff:54:5f:dd)
                Destination: IPv6mcast_ff:54:5f:dd (33:33:ff:54:5f:dd)
                    Address: IPv6mcast_ff:54:5f:dd (33:33:ff:54:5f:dd)
                    .... ...1 .... .... .... .... = IG bit: Group address (multicast/broadcast)
                    .... ..1. .... .... .... .... = LG bit: Locally administered address (this is NOT the factory default)
                Source: 6a:e6:be:54:5f:dd (6a:e6:be:54:5f:dd)
                    Address: 6a:e6:be:54:5f:dd (6a:e6:be:54:5f:dd)
                    .... ...0 .... .... .... .... = IG bit: Individual address (unicast)
                    .... ..1. .... .... .... .... = LG bit: Locally administered address (this is NOT the factory default)
                Type: IPv6 (0x86dd)
            Internet Protocol Version 6, Src: :: (::), Dst: ff02::1:ff54:5fdd (ff02::1:ff54:5fdd)
                0110 .... = Version: 6
                    [0110 .... = This field makes the filter "ip.version == 6" possible: 6]
                .... 0000 0000 .... .... .... .... .... = Traffic class: 0x00000000
                    .... 0000 00.. .... .... .... .... .... = Differentiated Services Field: Default (0x00000000)
                    .... .... ..0. .... .... .... .... .... = ECN-Capable Transport (ECT): Not set
                    .... .... ...0 .... .... .... .... .... = ECN-CE: Not set
                .... .... .... 0000 0000 0000 0000 0000 = Flowlabel: 0x00000000
                Payload length: 24
                Next header: ICMPv6 (0x3a)
                Hop limit: 255
                Source: :: (::)
                Destination: ff02::1:ff54:5fdd (ff02::1:ff54:5fdd)
            Internet Control Message Protocol v6
                Type: Neighbor Solicitation (135)
                Code: 0
                Checksum: 0x95dd [correct]
                Reserved: 00000000
                Target Address: fe80::68e6:beff:fe54:5fdd (fe80::68e6:beff:fe54:5fdd)

0000  00 00 00 00 00 00 00 00 00 00 00 00 08 00 45 00   ..............E.
0010  00 94 09 ad 40 00 40 06 32 b5 7f 00 00 01 7f 00   ....@.@.2.......
0020  00 01 a2 1c 19 e9 4f ec ab 16 9e b9 27 06 80 18   ......O.....'...
0030  02 00 fe 88 00 00 01 01 08 0a 00 00 a0 e6 00 00   ................
0040  a0 61 01 0a 00 60 00 00 00 00 00 00 01 02 00 4e   .a...`.........N
0050  00 01 00 00 33 33 ff 54 5f dd 6a e6 be 54 5f dd   ....33.T_.j..T_.
0060  86 dd 60 00 00 00 00 18 3a ff 00 00 00 00 00 00   ..`.....:.......
0070  00 00 00 00 00 00 00 00 00 00 ff 02 00 00 00 00   ................
0080  00 00 00 00 00 01 ff 54 5f dd 87 00 95 dd 00 00   .......T_.......
0090  00 00 fe 80 00 00 00 00 00 00 68 e6 be ff fe 54   ..........h....T
00a0  5f dd                                             _.
No.     Time        Source                Destination           Protocol Length Info
    685 50.013626   127.0.0.1             127.0.0.1             OFP      90     Packet Out (CSM) (BufID=258) (24B)

Frame 685: 90 bytes on wire (720 bits), 90 bytes captured (720 bits)
    Arrival Time: Dec 11, 2013 09:46:00.262425000 PST
    Epoch Time: 1386783960.262425000 seconds
    [Time delta from previous captured frame: 0.003749000 seconds]
    [Time delta from previous displayed frame: 0.043774000 seconds]
    [Time since reference or first frame: 50.013626000 seconds]
    Frame Number: 685
    Frame Length: 90 bytes (720 bits)
    Capture Length: 90 bytes (720 bits)
    [Frame is marked: False]
    [Frame is ignored: False]
    [Protocols in frame: eth:ip:tcp:of]
    [Coloring Rule Name: of]
    [Coloring Rule String: of]
Ethernet II, Src: 00:00:00_00:00:00 (00:00:00:00:00:00), Dst: 00:00:00_00:00:00 (00:00:00:00:00:00)
    Destination: 00:00:00_00:00:00 (00:00:00:00:00:00)
        Address: 00:00:00_00:00:00 (00:00:00:00:00:00)
        .... ...0 .... .... .... .... = IG bit: Individual address (unicast)
        .... ..0. .... .... .... .... = LG bit: Globally unique address (factory default)
    Source: 00:00:00_00:00:00 (00:00:00:00:00:00)
        Address: 00:00:00_00:00:00 (00:00:00:00:00:00)
        .... ...0 .... .... .... .... = IG bit: Individual address (unicast)
        .... ..0. .... .... .... .... = LG bit: Globally unique address (factory default)
    Type: IP (0x0800)
Internet Protocol Version 4, Src: 127.0.0.1 (127.0.0.1), Dst: 127.0.0.1 (127.0.0.1)
    Version: 4
    Header length: 20 bytes
    Differentiated Services Field: 0x00 (DSCP 0x00: Default; ECN: 0x00: Not-ECT (Not ECN-Capable Transport))
        0000 00.. = Differentiated Services Codepoint: Default (0x00)
        .... ..00 = Explicit Congestion Notification: Not-ECT (Not ECN-Capable Transport) (0x00)
    Total Length: 76
    Identification: 0x86b2 (34482)
    Flags: 0x02 (Don't Fragment)
        0... .... = Reserved bit: Not set
        .1.. .... = Don't fragment: Set
        ..0. .... = More fragments: Not set
    Fragment offset: 0
    Time to live: 64
    Protocol: TCP (6)
    Header checksum: 0xb5f7 [correct]
        [Good: True]
        [Bad: False]
    Source: 127.0.0.1 (127.0.0.1)
    Destination: 127.0.0.1 (127.0.0.1)
Transmission Control Protocol, Src Port: 6633 (6633), Dst Port: 41500 (41500), Seq: 133, Ack: 493, Len: 24
    Source port: 6633 (6633)
    Destination port: 41500 (41500)
    [Stream index: 2]
    Sequence number: 133    (relative sequence number)
    [Next sequence number: 157    (relative sequence number)]
    Acknowledgement number: 493    (relative ack number)
    Header length: 32 bytes
    Flags: 0x018 (PSH, ACK)
        000. .... .... = Reserved: Not set
        ...0 .... .... = Nonce: Not set
        .... 0... .... = Congestion Window Reduced (CWR): Not set
        .... .0.. .... = ECN-Echo: Not set
        .... ..0. .... = Urgent: Not set
        .... ...1 .... = Acknowledgement: Set
        .... .... 1... = Push: Set
        .... .... .0.. = Reset: Not set
        .... .... ..0. = Syn: Not set
        .... .... ...0 = Fin: Not set
    Window size value: 512
    [Calculated window size: 32768]
    [Window size scaling factor: 64]
    Checksum: 0xfe40 [validation disabled]
        [Good Checksum: False]
        [Bad Checksum: False]
    Options: (12 bytes)
        No-Operation (NOP)
        No-Operation (NOP)
        Timestamps: TSval 41201, TSecr 41190
            Kind: Timestamp (8)
            Length: 10
            Timestamp value: 41201
            Timestamp echo reply: 41190
    [SEQ/ACK analysis]
        [Bytes in flight: 24]
    [PDU Size: 24]
OpenFlow Protocol
    Header
        Version: 0x01
        Type: Packet Out (CSM) (13)
        Length: 24
        Transaction ID: 24
    Packet Out
        Buffer ID: 258
        Frame Recv Port: 1
        Size of action array in bytes: 8
        Output Action(s)
            Action
                Type: Output to switch port (0)
                Len: 8
                Output port: Flood  (all physical ports except input port and those disabled by STP)
                Max Bytes to Send: 0
            # of Actions: 1

0000  00 00 00 00 00 00 00 00 00 00 00 00 08 00 45 00   ..............E.
0010  00 4c 86 b2 40 00 40 06 b5 f7 7f 00 00 01 7f 00   .L..@.@.........
0020  00 01 19 e9 a2 1c 9e b9 27 06 4f ec ab 76 80 18   ........'.O..v..
0030  02 00 fe 40 00 00 01 01 08 0a 00 00 a0 f1 00 00   ...@............
0040  a0 e6 01 0d 00 18 00 00 00 18 00 00 01 02 00 01   ................
0050  00 08 00 00 00 08 ff fb 00 00                     ..........
No.     Time        Source                Destination           Protocol Length Info
    687 50.141140   127.0.0.1             127.0.0.1             OFP      130    Port Status (AM) (64B)

Frame 687: 130 bytes on wire (1040 bits), 130 bytes captured (1040 bits)
    Arrival Time: Dec 11, 2013 09:46:00.389939000 PST
    Epoch Time: 1386783960.389939000 seconds
    [Time delta from previous captured frame: 0.127471000 seconds]
    [Time delta from previous displayed frame: 0.127514000 seconds]
    [Time since reference or first frame: 50.141140000 seconds]
    Frame Number: 687
    Frame Length: 130 bytes (1040 bits)
    Capture Length: 130 bytes (1040 bits)
    [Frame is marked: False]
    [Frame is ignored: False]
    [Protocols in frame: eth:ip:tcp:of]
    [Coloring Rule Name: of]
    [Coloring Rule String: of]
Ethernet II, Src: 00:00:00_00:00:00 (00:00:00:00:00:00), Dst: 00:00:00_00:00:00 (00:00:00:00:00:00)
    Destination: 00:00:00_00:00:00 (00:00:00:00:00:00)
        Address: 00:00:00_00:00:00 (00:00:00:00:00:00)
        .... ...0 .... .... .... .... = IG bit: Individual address (unicast)
        .... ..0. .... .... .... .... = LG bit: Globally unique address (factory default)
    Source: 00:00:00_00:00:00 (00:00:00:00:00:00)
        Address: 00:00:00_00:00:00 (00:00:00:00:00:00)
        .... ...0 .... .... .... .... = IG bit: Individual address (unicast)
        .... ..0. .... .... .... .... = LG bit: Globally unique address (factory default)
    Type: IP (0x0800)
Internet Protocol Version 4, Src: 127.0.0.1 (127.0.0.1), Dst: 127.0.0.1 (127.0.0.1)
    Version: 4
    Header length: 20 bytes
    Differentiated Services Field: 0x00 (DSCP 0x00: Default; ECN: 0x00: Not-ECT (Not ECN-Capable Transport))
        0000 00.. = Differentiated Services Codepoint: Default (0x00)
        .... ..00 = Explicit Congestion Notification: Not-ECT (Not ECN-Capable Transport) (0x00)
    Total Length: 116
    Identification: 0x09af (2479)
    Flags: 0x02 (Don't Fragment)
        0... .... = Reserved bit: Not set
        .1.. .... = Don't fragment: Set
        ..0. .... = More fragments: Not set
    Fragment offset: 0
    Time to live: 64
    Protocol: TCP (6)
    Header checksum: 0x32d3 [correct]
        [Good: True]
        [Bad: False]
    Source: 127.0.0.1 (127.0.0.1)
    Destination: 127.0.0.1 (127.0.0.1)
Transmission Control Protocol, Src Port: 41500 (41500), Dst Port: 6633 (6633), Seq: 493, Ack: 157, Len: 64
    Source port: 41500 (41500)
    Destination port: 6633 (6633)
    [Stream index: 2]
    Sequence number: 493    (relative sequence number)
    [Next sequence number: 557    (relative sequence number)]
    Acknowledgement number: 157    (relative ack number)
    Header length: 32 bytes
    Flags: 0x018 (PSH, ACK)
        000. .... .... = Reserved: Not set
        ...0 .... .... = Nonce: Not set
        .... 0... .... = Congestion Window Reduced (CWR): Not set
        .... .0.. .... = ECN-Echo: Not set
        .... ..0. .... = Urgent: Not set
        .... ...1 .... = Acknowledgement: Set
        .... .... 1... = Push: Set
        .... .... .0.. = Reset: Not set
        .... .... ..0. = Syn: Not set
        .... .... ...0 = Fin: Not set
    Window size value: 512
    [Calculated window size: 32768]
    [Window size scaling factor: 64]
    Checksum: 0xfe68 [validation disabled]
        [Good Checksum: False]
        [Bad Checksum: False]
    Options: (12 bytes)
        No-Operation (NOP)
        No-Operation (NOP)
        Timestamps: TSval 41233, TSecr 41201
            Kind: Timestamp (8)
            Length: 10
            Timestamp value: 41233
            Timestamp echo reply: 41201
    [SEQ/ACK analysis]
        [Bytes in flight: 64]
    [PDU Size: 64]
OpenFlow Protocol
    Header
        Version: 0x01
        Type: Port Status (AM) (12)
        Length: 64
        Transaction ID: 0
    Port Status
        Reason: Some attribute of the port has changed (2)
        Physical Port
            Port #: 1
            MAC Address: 6e:2f:90:06:b5:bb (6e:2f:90:06:b5:bb)
            Port Name: s1-eth1
            Port Config Flags
                .... .... .... .... .... .... .... ...0 =   Port is administratively down: No (0)
                .... .... .... .... .... .... .... ..0. =   Disable 802.1D spanning tree on port: No (0)
                .... .... .... .... .... .... .... .0.. =   Drop non-802.1D packets received on port: No (0)
                .... .... .... .... .... .... .... 0... =   Drop received 802.1D STP packets: No (0)
                .... .... .... .... .... .... ...0 .... =   Do not include this port when flooding: No (0)
                .... .... .... .... .... .... ..0. .... =   Drop packets forwarded to port: No (0)
                .... .... .... .... .... .... .0.. .... =   Do not send packet-in msgs for port: No (0)
            Port State Flags
                STP state: Not learning or relaying frames
            Port Current Flags
                .... .... .... .... .... .... .... ...0 =    10 Mb half-duplex rate support: No (0)
                .... .... .... .... .... .... .... ..0. =    10 Mb full-duplex rate support: No (0)
                .... .... .... .... .... .... .... .0.. =   100 Mb half-duplex rate support: No (0)
                .... .... .... .... .... .... .... 0... =   100 Mb full-duplex rate support: No (0)
                .... .... .... .... .... .... ...0 .... =     1 Gb half-duplex rate support: No (0)
                .... .... .... .... .... .... ..0. .... =     1 Gb full-duplex rate support: No (0)
                .... .... .... .... .... .... .1.. .... =    10 Gb full-duplex rate support: Yes (1)
                .... .... .... .... .... .... 1... .... =    Copper medium support: Yes (1)
                .... .... .... .... .... ...0 .... .... =    Fiber medium support: No (0)
                .... .... .... .... .... ..0. .... .... =    Auto-negotiation support: No (0)
                .... .... .... .... .... .0.. .... .... =    Pause support: No (0)
                .... .... .... .... .... 0... .... .... =    Asymmetric pause support: No (0)
            Port Advertsied Flags
                .... .... .... .... .... .... .... ...0 =    10 Mb half-duplex rate support: No (0)
                .... .... .... .... .... .... .... ..0. =    10 Mb full-duplex rate support: No (0)
                .... .... .... .... .... .... .... .0.. =   100 Mb half-duplex rate support: No (0)
                .... .... .... .... .... .... .... 0... =   100 Mb full-duplex rate support: No (0)
                .... .... .... .... .... .... ...0 .... =     1 Gb half-duplex rate support: No (0)
                .... .... .... .... .... .... ..0. .... =     1 Gb full-duplex rate support: No (0)
                .... .... .... .... .... .... .0.. .... =    10 Gb full-duplex rate support: No (0)
                .... .... .... .... .... .... 0... .... =    Copper medium support: No (0)
                .... .... .... .... .... ...0 .... .... =    Fiber medium support: No (0)
                .... .... .... .... .... ..0. .... .... =    Auto-negotiation support: No (0)
                .... .... .... .... .... .0.. .... .... =    Pause support: No (0)
                .... .... .... .... .... 0... .... .... =    Asymmetric pause support: No (0)
            Port Supported Flags
                .... .... .... .... .... .... .... ...0 =    10 Mb half-duplex rate support: No (0)
                .... .... .... .... .... .... .... ..0. =    10 Mb full-duplex rate support: No (0)
                .... .... .... .... .... .... .... .0.. =   100 Mb half-duplex rate support: No (0)
                .... .... .... .... .... .... .... 0... =   100 Mb full-duplex rate support: No (0)
                .... .... .... .... .... .... ...0 .... =     1 Gb half-duplex rate support: No (0)
                .... .... .... .... .... .... ..0. .... =     1 Gb full-duplex rate support: No (0)
                .... .... .... .... .... .... .0.. .... =    10 Gb full-duplex rate support: No (0)
                .... .... .... .... .... .... 0... .... =    Copper medium support: No (0)
                .... .... .... .... .... ...0 .... .... =    Fiber medium support: No (0)
                .... .... .... .... .... ..0. .... .... =    Auto-negotiation support: No (0)
                .... .... .... .... .... .0.. .... .... =    Pause support: No (0)
                .... .... .... .... .... 0... .... .... =    Asymmetric pause support: No (0)
            Port Peer Flags
                .... .... .... .... .... .... .... ...0 =    10 Mb half-duplex rate support: No (0)
                .... .... .... .... .... .... .... ..0. =    10 Mb full-duplex rate support: No (0)
                .... .... .... .... .... .... .... .0.. =   100 Mb half-duplex rate support: No (0)
                .... .... .... .... .... .... .... 0... =   100 Mb full-duplex rate support: No (0)
                .... .... .... .... .... .... ...0 .... =     1 Gb half-duplex rate support: No (0)
                .... .... .... .... .... .... ..0. .... =     1 Gb full-duplex rate support: No (0)
                .... .... .... .... .... .... .0.. .... =    10 Gb full-duplex rate support: No (0)
                .... .... .... .... .... .... 0... .... =    Copper medium support: No (0)
                .... .... .... .... .... ...0 .... .... =    Fiber medium support: No (0)
                .... .... .... .... .... ..0. .... .... =    Auto-negotiation support: No (0)
                .... .... .... .... .... .0.. .... .... =    Pause support: No (0)
                .... .... .... .... .... 0... .... .... =    Asymmetric pause support: No (0)

0000  00 00 00 00 00 00 00 00 00 00 00 00 08 00 45 00   ..............E.
0010  00 74 09 af 40 00 40 06 32 d3 7f 00 00 01 7f 00   .t..@.@.2.......
0020  00 01 a2 1c 19 e9 4f ec ab 76 9e b9 27 1e 80 18   ......O..v..'...
0030  02 00 fe 68 00 00 01 01 08 0a 00 00 a1 11 00 00   ...h............
0040  a0 f1 01 0c 00 40 00 00 00 00 02 00 00 00 00 00   .....@..........
0050  00 00 00 01 6e 2f 90 06 b5 bb 73 31 2d 65 74 68   ....n/....s1-eth
0060  31 00 00 00 00 00 00 00 00 00 00 00 00 00 00 00   1...............
0070  00 00 00 00 00 c0 00 00 00 00 00 00 00 00 00 00   ................
0080  00 00                                             ..
No.     Time        Source                Destination           Protocol Length Info
    705 50.421844   fe80::788e:beff:fe84:fa12 ff02::2               OFP+ICMPv6 154    Packet In (AM) (BufID=259) (88B) => Router Solicitation from 7a:8e:be:84:fa:12

Frame 705: 154 bytes on wire (1232 bits), 154 bytes captured (1232 bits)
    Arrival Time: Dec 11, 2013 09:46:00.670643000 PST
    Epoch Time: 1386783960.670643000 seconds
    [Time delta from previous captured frame: 0.035451000 seconds]
    [Time delta from previous displayed frame: 0.280704000 seconds]
    [Time since reference or first frame: 50.421844000 seconds]
    Frame Number: 705
    Frame Length: 154 bytes (1232 bits)
    Capture Length: 154 bytes (1232 bits)
    [Frame is marked: False]
    [Frame is ignored: False]
    [Protocols in frame: eth:ip:tcp:of:eth:ipv6:icmpv6]
    [Coloring Rule Name: of]
    [Coloring Rule String: of]
Ethernet II, Src: 00:00:00_00:00:00 (00:00:00:00:00:00), Dst: 00:00:00_00:00:00 (00:00:00:00:00:00)
    Destination: 00:00:00_00:00:00 (00:00:00:00:00:00)
        Address: 00:00:00_00:00:00 (00:00:00:00:00:00)
        .... ...0 .... .... .... .... = IG bit: Individual address (unicast)
        .... ..0. .... .... .... .... = LG bit: Globally unique address (factory default)
    Source: 00:00:00_00:00:00 (00:00:00:00:00:00)
        Address: 00:00:00_00:00:00 (00:00:00:00:00:00)
        .... ...0 .... .... .... .... = IG bit: Individual address (unicast)
        .... ..0. .... .... .... .... = LG bit: Globally unique address (factory default)
    Type: IP (0x0800)
